{
  "address": "0xC5abE0aF57d9b9AD5ff1681DB7a379dB8A3c5745",
  "abi": [
    {
      "inputs": [
        {
          "internalType": "contract IPoolAddressesProvider",
          "name": "provider",
          "type": "address"
        },
        {
          "internalType": "uint256",
          "name": "optimalUsageRatio",
          "type": "uint256"
        },
        {
          "internalType": "uint256",
          "name": "baseVariableBorrowRate",
          "type": "uint256"
        },
        {
          "internalType": "uint256",
          "name": "variableRateSlope1",
          "type": "uint256"
        },
        {
          "internalType": "uint256",
          "name": "variableRateSlope2",
          "type": "uint256"
        },
        {
          "internalType": "uint256",
          "name": "stableRateSlope1",
          "type": "uint256"
        },
        {
          "internalType": "uint256",
          "name": "stableRateSlope2",
          "type": "uint256"
        },
        {
          "internalType": "uint256",
          "name": "baseStableRateOffset",
          "type": "uint256"
        },
        {
          "internalType": "uint256",
          "name": "stableRateExcessOffset",
          "type": "uint256"
        },
        {
          "internalType": "uint256",
          "name": "optimalStableToTotalDebtRatio",
          "type": "uint256"
        }
      ],
      "stateMutability": "nonpayable",
      "type": "constructor"
    },
    {
      "inputs": [],
      "name": "ADDRESSES_PROVIDER",
      "outputs": [
        {
          "internalType": "contract IPoolAddressesProvider",
          "name": "",
          "type": "address"
        }
      ],
      "stateMutability": "view",
      "type": "function"
    },
    {
      "inputs": [],
      "name": "MAX_EXCESS_STABLE_TO_TOTAL_DEBT_RATIO",
      "outputs": [
        {
          "internalType": "uint256",
          "name": "",
          "type": "uint256"
        }
      ],
      "stateMutability": "view",
      "type": "function"
    },
    {
      "inputs": [],
      "name": "MAX_EXCESS_USAGE_RATIO",
      "outputs": [
        {
          "internalType": "uint256",
          "name": "",
          "type": "uint256"
        }
      ],
      "stateMutability": "view",
      "type": "function"
    },
    {
      "inputs": [],
      "name": "OPTIMAL_STABLE_TO_TOTAL_DEBT_RATIO",
      "outputs": [
        {
          "internalType": "uint256",
          "name": "",
          "type": "uint256"
        }
      ],
      "stateMutability": "view",
      "type": "function"
    },
    {
      "inputs": [],
      "name": "OPTIMAL_USAGE_RATIO",
      "outputs": [
        {
          "internalType": "uint256",
          "name": "",
          "type": "uint256"
        }
      ],
      "stateMutability": "view",
      "type": "function"
    },
    {
      "inputs": [],
      "name": "calculateBaseYearAPY",
      "outputs": [
        {
          "internalType": "uint256",
          "name": "",
          "type": "uint256"
        }
      ],
      "stateMutability": "view",
      "type": "function"
    },
    {
      "inputs": [
        {
          "components": [
            {
              "internalType": "uint256",
              "name": "unbacked",
              "type": "uint256"
            },
            {
              "internalType": "uint256",
              "name": "liquidityAdded",
              "type": "uint256"
            },
            {
              "internalType": "uint256",
              "name": "liquidityTaken",
              "type": "uint256"
            },
            {
              "internalType": "uint256",
              "name": "totalStableDebt",
              "type": "uint256"
            },
            {
              "internalType": "uint256",
              "name": "totalVariableDebt",
              "type": "uint256"
            },
            {
              "internalType": "uint256",
              "name": "averageStableBorrowRate",
              "type": "uint256"
            },
            {
              "internalType": "uint256",
              "name": "reserveFactor",
              "type": "uint256"
            },
            {
              "internalType": "address",
              "name": "reserve",
              "type": "address"
            },
            {
              "internalType": "address",
              "name": "aToken",
              "type": "address"
            }
          ],
          "internalType": "struct DataTypes.CalculateInterestRatesParams",
          "name": "params",
          "type": "tuple"
        }
      ],
      "name": "calculateInterestRates",
      "outputs": [
        {
          "internalType": "uint256",
          "name": "",
          "type": "uint256"
        },
        {
          "internalType": "uint256",
          "name": "",
          "type": "uint256"
        },
        {
          "internalType": "uint256",
          "name": "",
          "type": "uint256"
        }
      ],
      "stateMutability": "view",
      "type": "function"
    },
    {
      "inputs": [],
      "name": "calculateMaxYearAPY",
      "outputs": [
        {
          "internalType": "uint256",
          "name": "",
          "type": "uint256"
        }
      ],
      "stateMutability": "view",
      "type": "function"
    },
    {
      "inputs": [],
      "name": "getBaseStableBorrowRate",
      "outputs": [
        {
          "internalType": "uint256",
          "name": "",
          "type": "uint256"
        }
      ],
      "stateMutability": "view",
      "type": "function"
    },
    {
      "inputs": [],
      "name": "getBaseVariableBorrowRate",
      "outputs": [
        {
          "internalType": "uint256",
          "name": "",
          "type": "uint256"
        }
      ],
      "stateMutability": "view",
      "type": "function"
    },
    {
      "inputs": [],
      "name": "getMaxVariableBorrowRate",
      "outputs": [
        {
          "internalType": "uint256",
          "name": "",
          "type": "uint256"
        }
      ],
      "stateMutability": "view",
      "type": "function"
    },
    {
      "inputs": [],
      "name": "getStableRateExcessOffset",
      "outputs": [
        {
          "internalType": "uint256",
          "name": "",
          "type": "uint256"
        }
      ],
      "stateMutability": "view",
      "type": "function"
    },
    {
      "inputs": [],
      "name": "getStableRateSlope1",
      "outputs": [
        {
          "internalType": "uint256",
          "name": "",
          "type": "uint256"
        }
      ],
      "stateMutability": "view",
      "type": "function"
    },
    {
      "inputs": [],
      "name": "getStableRateSlope2",
      "outputs": [
        {
          "internalType": "uint256",
          "name": "",
          "type": "uint256"
        }
      ],
      "stateMutability": "view",
      "type": "function"
    },
    {
      "inputs": [],
      "name": "getVariableRateSlope1",
      "outputs": [
        {
          "internalType": "uint256",
          "name": "",
          "type": "uint256"
        }
      ],
      "stateMutability": "view",
      "type": "function"
    },
    {
      "inputs": [],
      "name": "getVariableRateSlope2",
      "outputs": [
        {
          "internalType": "uint256",
          "name": "",
          "type": "uint256"
        }
      ],
      "stateMutability": "view",
      "type": "function"
    }
  ],
  "transactionHash": "0x789a66f6d9471e993d6e026afe50e8389202e2823db509320f491602dd0552ac",
  "args": [
    "0x4dB5f99998ec406415A30FDD1CDE2Dc669e8F508",
    "800000000000000000000000000",
    "0",
    "40000000000000000000000000",
    "750000000000000000000000000",
    "5000000000000000000000000",
    "750000000000000000000000000",
    "10000000000000000000000000",
    "80000000000000000000000000",
    "200000000000000000000000000"
  ],
  "numDeployments": 1,
  "solcInputHash": "36e6027b51d8110ab45ae0fd05a135e6",
  "bytecode": "0x6102006040523480156200001257600080fd5b50604051620011f3380380620011f3833981016040819052620000359162000154565b886b033b2e3c9fd0803ce8000000101560405180604001604052806002815260200161383360f01b815250906200008a5760405162461bcd60e51b8152600401620000819190620001e1565b60405180910390fd5b50806b033b2e3c9fd0803ce80000001015604051806040016040528060028152602001610e0d60f21b81525090620000d75760405162461bcd60e51b8152600401620000819190620001e1565b506080899052620000f5896b033b2e3c9fd0803ce800000062000239565b60c05260a081905262000115816b033b2e3c9fd0803ce800000062000239565b60e052506001600160a01b0390981661010052610120959095526101409390935261016091909152610180526101a0526101c052506101e0526200025f565b6000806000806000806000806000806101408b8d0312156200017557600080fd5b8a516001600160a01b03811681146200018d57600080fd5b809a505060208b0151985060408b0151975060608b0151965060808b0151955060a08b0151945060c08b0151935060e08b015192506101008b015191506101208b015190509295989b9194979a5092959850565b600060208083528351808285015260005b818110156200021057858101830151858201604001528201620001f2565b8181111562000223576000604083870101525b50601f01601f1916929092016040019392505050565b6000828210156200025a57634e487b7160e01b600052601160045260246000fd5b500390565b60805160a05160c05160e05161010051610120516101405161016051610180516101a0516101c0516101e051610e6f6200038460003960008181610297015261086a0152600061090f01526000818161018801526106350152600081816102bd0152818161066001526107350152600081816102e301528181610355015261069d01526000818161015801528181610379015281816106c8015281816107a701526109300152600081816101ae0152818161039a0152818161044301526109590152600061010a01526000818161030c015261081401526000818161026301526105d90152600081816101fe015281816107e301526108350152600081816101d7015281816105a8015281816105fa0152818161070c01526107810152610e6f6000f3fe608060405234801561001057600080fd5b50600436106101005760003560e01c8063a589870911610097578063bc62690811610066578063bc62690814610295578063d5cd7391146102bb578063f4202409146102e1578063fe5fd6981461030757600080fd5b8063a589870914610230578063a9c622f81461025e578063acd7868614610285578063b3e7f6191461028d57600080fd5b806354c365c6116100d357806354c365c6146101d25780636fb92589146101f957806370a67be31461022057806380031e371461022857600080fd5b80630542975c146101055780630b3429a21461015657806314e32da41461018657806334762ca5146101ac575b600080fd5b61012c7f000000000000000000000000000000000000000000000000000000000000000081565b60405173ffffffffffffffffffffffffffffffffffffffff90911681526020015b60405180910390f35b7f00000000000000000000000000000000000000000000000000000000000000005b60405190815260200161014d565b7f0000000000000000000000000000000000000000000000000000000000000000610178565b7f0000000000000000000000000000000000000000000000000000000000000000610178565b6101787f000000000000000000000000000000000000000000000000000000000000000081565b6101787f000000000000000000000000000000000000000000000000000000000000000081565b61017861032e565b610178610351565b61024361023e366004610c96565b6103cd565b6040805193845260208401929092529082015260600161014d565b6101787f000000000000000000000000000000000000000000000000000000000000000081565b610178610908565b610178610954565b7f0000000000000000000000000000000000000000000000000000000000000000610178565b7f0000000000000000000000000000000000000000000000000000000000000000610178565b7f0000000000000000000000000000000000000000000000000000000000000000610178565b6101787f000000000000000000000000000000000000000000000000000000000000000081565b600080610339610351565b905061034b8160006301e1338061097d565b91505090565b60007f00000000000000000000000000000000000000000000000000000000000000006103be7f00000000000000000000000000000000000000000000000000000000000000007f0000000000000000000000000000000000000000000000000000000000000000610d4a565b6103c89190610d4a565b905090565b60008060006104216040518061012001604052806000815260200160008152602001600081526020016000815260200160008152602001600081526020016000815260200160008152602001600081525090565b846080015185606001516104359190610d4a565b6020820152600060808201527f0000000000000000000000000000000000000000000000000000000000000000604082015261046f610908565b60608201526020810151156105a6576020810151606086015161049191610ac6565b60e08083019190915260408087015160208801519288015161010089015192517f70a0823100000000000000000000000000000000000000000000000000000000815273ffffffffffffffffffffffffffffffffffffffff938416600482015291939216906370a0823190602401602060405180830381865afa15801561051c573d6000803e3d6000fd5b505050506040513d601f19601f820116820180604052508101906105409190610d62565b61054a9190610d4a565b6105549190610d7b565b808252602082015161056591610d4a565b6101008201819052602082015161057b91610ac6565b60a082015284516101008201516105a09161059591610d4a565b602083015190610ac6565b60c08201525b7f00000000000000000000000000000000000000000000000000000000000000008160a00151111561070757600061062e7f00000000000000000000000000000000000000000000000000000000000000007f00000000000000000000000000000000000000000000000000000000000000008460a001516106289190610d7b565b90610ac6565b905061065a7f000000000000000000000000000000000000000000000000000000000000000082610b05565b610684907f0000000000000000000000000000000000000000000000000000000000000000610d4a565b826060018181516106959190610d4a565b9052506106c27f000000000000000000000000000000000000000000000000000000000000000082610b05565b6106ec907f0000000000000000000000000000000000000000000000000000000000000000610d4a565b826040018181516106fd9190610d4a565b9052506107e19050565b6107627f00000000000000000000000000000000000000000000000000000000000000006106288360a001517f0000000000000000000000000000000000000000000000000000000000000000610b0590919063ffffffff16565b816060018181516107739190610d4a565b90525060a08101516107cc907f000000000000000000000000000000000000000000000000000000000000000090610628907f000000000000000000000000000000000000000000000000000000000000000090610b05565b816040018181516107dd9190610d4a565b9052505b7f00000000000000000000000000000000000000000000000000000000000000008160e0015111156108a55760006108637f00000000000000000000000000000000000000000000000000000000000000007f00000000000000000000000000000000000000000000000000000000000000008460e001516106289190610d7b565b905061088f7f000000000000000000000000000000000000000000000000000000000000000082610b05565b826060018181516108a09190610d4a565b905250505b6108ea8560c001516127106108ba9190610d7b565b6108e48360c001516108de89606001518a6080015187604001518c60a00151610b5c565b90610b05565b90610bc3565b60808201819052606082015160409092015190969195509350915050565b60006103c87f00000000000000000000000000000000000000000000000000000000000000007f0000000000000000000000000000000000000000000000000000000000000000610d4a565b6000807f0000000000000000000000000000000000000000000000000000000000000000610339565b60008061099164ffffffffff851684610d7b565b9050806109ad576b033b2e3c9fd0803ce8000000915050610abf565b7fffffffffffffffffffffffffffffffffffffffffffffffffffffffffffffffff810160008080600285116109e35760006109e8565b600285035b925066038882915c40006109fc8a80610b05565b81610a0957610a09610d92565b0491506301e13380610a1b838b610b05565b81610a2857610a28610d92565b049050600082610a388688610dc1565b610a429190610dc1565b60029004905060008285610a56888a610dc1565b610a609190610dc1565b610a6a9190610dc1565b60069004905080826301e13380610a818a8f610dc1565b610a8b9190610dfe565b610aa1906b033b2e3c9fd0803ce8000000610d4a565b610aab9190610d4a565b610ab59190610d4a565b9750505050505050505b9392505050565b600081156b033b2e3c9fd0803ce800000060028404190484111715610aea57600080fd5b506b033b2e3c9fd0803ce80000009190910260028204010490565b600081157ffffffffffffffffffffffffffffffffffffffffffe6268e1b017bfe18bffffff83900484111517610b3a57600080fd5b506b033b2e3c9fd0803ce800000091026b019d971e4fe8401e74000000010490565b600080610b698587610d4a565b905080610b7a576000915050610bbb565b6000610b89856108de88610c06565b90506000610b9a856108de8a610c06565b90506000610bb4610baa85610c06565b6106288486610d4a565b9450505050505b949350505050565b600081157fffffffffffffffffffffffffffffffffffffffffffffffffffffffffffffec7783900484111517610bf857600080fd5b506127109102611388010490565b633b9aca008181029081048214610c1c57600080fd5b919050565b604051610120810167ffffffffffffffff81118282101715610c6c577f4e487b7100000000000000000000000000000000000000000000000000000000600052604160045260246000fd5b60405290565b803573ffffffffffffffffffffffffffffffffffffffff81168114610c1c57600080fd5b60006101208284031215610ca957600080fd5b610cb1610c21565b823581526020830135602082015260408301356040820152606083013560608201526080830135608082015260a083013560a082015260c083013560c0820152610cfd60e08401610c72565b60e0820152610100610d10818501610c72565b908201529392505050565b7f4e487b7100000000000000000000000000000000000000000000000000000000600052601160045260246000fd5b60008219821115610d5d57610d5d610d1b565b500190565b600060208284031215610d7457600080fd5b5051919050565b600082821015610d8d57610d8d610d1b565b500390565b7f4e487b7100000000000000000000000000000000000000000000000000000000600052601260045260246000fd5b6000817fffffffffffffffffffffffffffffffffffffffffffffffffffffffffffffffff0483118215151615610df957610df9610d1b565b500290565b600082610e34577f4e487b7100000000000000000000000000000000000000000000000000000000600052601260045260246000fd5b50049056fea264697066735822122033730f1f7eee558cad98c3ca0603d72a6afd7326f2498c36212372106f9ca38b64736f6c634300080a0033",
  "devdoc": {
    "author": "Aave",
    "details": "The model of interest rate is based on 2 slopes, one before the `OPTIMAL_USAGE_RATIO` point of usage and another from that one to 100%. - An instance of this same contract, can't be used across different Aave markets, due to the caching   of the PoolAddressesProvider",
    "kind": "dev",
    "methods": {
      "calculateInterestRates((uint256,uint256,uint256,uint256,uint256,uint256,uint256,address,address))": {
        "params": {
          "params": "The parameters needed to calculate interest rates"
        },
        "returns": {
          "_0": "liquidityRate The liquidity rate expressed in rays",
          "_1": "stableBorrowRate The stable borrow rate expressed in rays",
          "_2": "variableBorrowRate The variable borrow rate expressed in rays"
        }
      },
      "constructor": {
        "details": "Constructor.",
        "params": {
          "baseStableRateOffset": "The premium on top of variable rate for base stable borrowing rate",
          "baseVariableBorrowRate": "The base variable borrow rate",
          "optimalStableToTotalDebtRatio": "The optimal stable debt to total debt ratio of the reserve",
          "optimalUsageRatio": "The optimal usage ratio",
          "provider": "The address of the PoolAddressesProvider contract",
          "stableRateExcessOffset": "The premium on top of stable rate when there stable debt surpass the threshold",
          "stableRateSlope1": "The stable rate slope below optimal usage ratio",
          "stableRateSlope2": "The stable rate slope above optimal usage ratio",
          "variableRateSlope1": "The variable rate slope below optimal usage ratio",
          "variableRateSlope2": "The variable rate slope above optimal usage ratio"
        }
      },
      "getBaseStableBorrowRate()": {
        "returns": {
          "_0": "The base stable borrow rate, expressed in ray"
        }
      },
      "getBaseVariableBorrowRate()": {
        "returns": {
          "_0": "The base variable borrow rate, expressed in ray"
        }
      },
      "getMaxVariableBorrowRate()": {
        "returns": {
          "_0": "The maximum variable borrow rate, expressed in ray"
        }
      },
      "getStableRateExcessOffset()": {
        "details": "It's an additional premium applied to the stable when stable debt > OPTIMAL_STABLE_TO_TOTAL_DEBT_RATIO",
        "returns": {
          "_0": "The stable rate excess offset, expressed in ray"
        }
      },
      "getStableRateSlope1()": {
        "details": "It's the stable rate when usage ratio > 0 and <= OPTIMAL_USAGE_RATIO",
        "returns": {
          "_0": "The stable rate slope, expressed in ray"
        }
      },
      "getStableRateSlope2()": {
        "details": "It's the variable rate when usage ratio > OPTIMAL_USAGE_RATIO",
        "returns": {
          "_0": "The stable rate slope, expressed in ray"
        }
      },
      "getVariableRateSlope1()": {
        "details": "It's the variable rate when usage ratio > 0 and <= OPTIMAL_USAGE_RATIO",
        "returns": {
          "_0": "The variable rate slope, expressed in ray"
        }
      },
      "getVariableRateSlope2()": {
        "details": "It's the variable rate when usage ratio > OPTIMAL_USAGE_RATIO",
        "returns": {
          "_0": "The variable rate slope, expressed in ray"
        }
      }
    },
    "stateVariables": {
      "ADDRESSES_PROVIDER": {
        "return": "The address of the PoolAddressesProvider contract",
        "returns": {
          "_0": "The address of the PoolAddressesProvider contract"
        }
      },
      "MAX_EXCESS_STABLE_TO_TOTAL_DEBT_RATIO": {
        "details": "It's always equal to 1-optimal stable to total debt ratio (added as constant for gas optimizations)",
        "return": "The max excess stable to total debt ratio, expressed in ray.",
        "returns": {
          "_0": "The max excess stable to total debt ratio, expressed in ray."
        }
      },
      "MAX_EXCESS_USAGE_RATIO": {
        "details": "It's always equal to 1-optimal usage ratio (added as constant for gas optimizations)",
        "return": "The max excess usage ratio, expressed in ray.",
        "returns": {
          "_0": "The max excess usage ratio, expressed in ray."
        }
      },
      "OPTIMAL_STABLE_TO_TOTAL_DEBT_RATIO": {
        "return": "The optimal stable to total debt ratio, expressed in ray.",
        "returns": {
          "_0": "The optimal stable to total debt ratio, expressed in ray."
        }
      },
      "OPTIMAL_USAGE_RATIO": {
        "return": "The optimal usage ratio, expressed in ray.",
        "returns": {
          "_0": "The optimal usage ratio, expressed in ray."
        }
      }
    },
    "title": "DefaultReserveInterestRateStrategy contract",
    "version": 1
  },
  "userdoc": {
    "kind": "user",
    "methods": {
      "ADDRESSES_PROVIDER()": {
        "notice": "Returns the address of the PoolAddressesProvider"
      },
      "MAX_EXCESS_STABLE_TO_TOTAL_DEBT_RATIO()": {
        "notice": "Returns the excess stable debt ratio above the optimal."
      },
      "MAX_EXCESS_USAGE_RATIO()": {
        "notice": "Returns the excess usage ratio above the optimal."
      },
      "OPTIMAL_STABLE_TO_TOTAL_DEBT_RATIO()": {
        "notice": "Returns the optimal stable to total debt ratio of the reserve."
      },
      "OPTIMAL_USAGE_RATIO()": {
        "notice": "Returns the usage ratio at which the pool aims to obtain most competitive borrow rates."
      },
      "calculateInterestRates((uint256,uint256,uint256,uint256,uint256,uint256,uint256,address,address))": {
        "notice": "Calculates the interest rates depending on the reserve's state and configurations"
      },
      "getBaseStableBorrowRate()": {
        "notice": "Returns the base stable borrow rate"
      },
      "getBaseVariableBorrowRate()": {
        "notice": "Returns the base variable borrow rate"
      },
      "getMaxVariableBorrowRate()": {
        "notice": "Returns the maximum variable borrow rate"
      },
      "getStableRateExcessOffset()": {
        "notice": "Returns the stable rate excess offset"
      },
      "getStableRateSlope1()": {
        "notice": "Returns the stable rate slope below optimal usage ratio"
      },
      "getStableRateSlope2()": {
        "notice": "Returns the stable rate slope above optimal usage ratio"
      },
      "getVariableRateSlope1()": {
        "notice": "Returns the variable rate slope below optimal usage ratio"
      },
      "getVariableRateSlope2()": {
        "notice": "Returns the variable rate slope above optimal usage ratio"
      }
    },
    "notice": "Implements the calculation of the interest rates depending on the reserve state",
    "version": 1
  },
  "storageLayout": {
    "storage": [],
    "types": null
  }
}