{
  "address": "0xbfbD67100371BA6644eb0D950255Fa3A89aA013E",
  "abi": [
    {
      "inputs": [
        {
          "internalType": "address",
          "name": "_poolWrapper",
          "type": "address"
        },
        {
          "internalType": "address",
          "name": "_blast",
          "type": "address"
        }
      ],
      "stateMutability": "nonpayable",
      "type": "constructor"
    },
    {
      "inputs": [],
      "name": "AddressZero",
      "type": "error"
    },
    {
      "anonymous": false,
      "inputs": [
        {
          "indexed": false,
          "internalType": "address",
          "name": "user",
          "type": "address"
        },
        {
          "indexed": false,
          "internalType": "uint256",
          "name": "amount",
          "type": "uint256"
        }
      ],
      "name": "GasClaimed",
      "type": "event"
    },
    {
      "anonymous": false,
      "inputs": [
        {
          "indexed": false,
          "internalType": "address",
          "name": "user",
          "type": "address"
        },
        {
          "indexed": false,
          "internalType": "uint256",
          "name": "amount",
          "type": "uint256"
        }
      ],
      "name": "GasRefunded",
      "type": "event"
    },
    {
      "anonymous": false,
      "inputs": [
        {
          "indexed": false,
          "internalType": "uint8",
          "name": "version",
          "type": "uint8"
        }
      ],
      "name": "Initialized",
      "type": "event"
    },
    {
      "anonymous": false,
      "inputs": [
        {
          "indexed": true,
          "internalType": "address",
          "name": "previousOwner",
          "type": "address"
        },
        {
          "indexed": true,
          "internalType": "address",
          "name": "newOwner",
          "type": "address"
        }
      ],
      "name": "OwnershipTransferred",
      "type": "event"
    },
    {
      "inputs": [],
      "name": "BLAST",
      "outputs": [
        {
          "internalType": "address",
          "name": "",
          "type": "address"
        }
      ],
      "stateMutability": "view",
      "type": "function"
    },
    {
      "inputs": [],
      "name": "POOL_WRAPPER",
      "outputs": [
        {
          "internalType": "address",
          "name": "",
          "type": "address"
        }
      ],
      "stateMutability": "view",
      "type": "function"
    },
    {
      "inputs": [
        {
          "internalType": "address",
          "name": "user",
          "type": "address"
        },
        {
          "internalType": "uint256",
          "name": "amount",
          "type": "uint256"
        },
        {
          "internalType": "enum IGasRefund.RefundType",
          "name": "refundType",
          "type": "uint8"
        }
      ],
      "name": "addGasRefund",
      "outputs": [],
      "stateMutability": "nonpayable",
      "type": "function"
    },
    {
      "inputs": [],
      "name": "claimGas",
      "outputs": [],
      "stateMutability": "nonpayable",
      "type": "function"
    },
    {
      "inputs": [
        {
          "internalType": "address",
          "name": "recipient",
          "type": "address"
        }
      ],
      "name": "claimRefundedGas",
      "outputs": [],
      "stateMutability": "nonpayable",
      "type": "function"
    },
    {
      "inputs": [
        {
          "internalType": "address",
          "name": "user",
          "type": "address"
        }
      ],
      "name": "gasBalance",
      "outputs": [
        {
          "internalType": "uint256",
          "name": "",
          "type": "uint256"
        }
      ],
      "stateMutability": "view",
      "type": "function"
    },
    {
      "inputs": [],
      "name": "initialize",
      "outputs": [],
      "stateMutability": "nonpayable",
      "type": "function"
    },
    {
      "inputs": [],
      "name": "owner",
      "outputs": [
        {
          "internalType": "address",
          "name": "",
          "type": "address"
        }
      ],
      "stateMutability": "view",
      "type": "function"
    },
    {
      "inputs": [],
      "name": "renounceOwnership",
      "outputs": [],
      "stateMutability": "nonpayable",
      "type": "function"
    },
    {
      "inputs": [
        {
          "internalType": "enum IGasRefund.RefundType",
          "name": "refundType",
          "type": "uint8"
        },
        {
          "internalType": "uint256",
          "name": "ratio",
          "type": "uint256"
        }
      ],
      "name": "setRefundRatio",
      "outputs": [],
      "stateMutability": "nonpayable",
      "type": "function"
    },
    {
      "inputs": [
        {
          "internalType": "address",
          "name": "newOwner",
          "type": "address"
        }
      ],
      "name": "transferOwnership",
      "outputs": [],
      "stateMutability": "nonpayable",
      "type": "function"
    },
    {
      "stateMutability": "payable",
      "type": "receive"
    }
  ],
  "transactionHash": "0x74f81f0e844a66bfd9b71586d399b68fe88ebd4ec63b8a913e953d6261f8cb56",
  "args": [
    "0x24Be59E007E6551Bd0f2d5745036504E48624D18",
    "0x4300000000000000000000000000000000000002"
  ],
  "numDeployments": 1,
  "solcInputHash": "dae4eb65d51fd68af699a2fdc813309b",
  "bytecode": "0x60c060405234801561001057600080fd5b50604051610f96380380610f9683398101604081905261002f91610089565b6001600160a01b03821661005657604051639fabe1c160e01b815260040160405180910390fd5b6001600160a01b039182166080521660a0526100bc565b80516001600160a01b038116811461008457600080fd5b919050565b6000806040838503121561009c57600080fd5b6100a58361006d565b91506100b36020840161006d565b90509250929050565b60805160a051610e996100fd600039600081816101d3015281816102ee015281816105a001526105c7015260008181610100015261075f0152610e996000f3fe6080604052600436106100c05760003560e01c8063957d313011610074578063a95d6b1c1161004e578063a95d6b1c14610246578063cff29e671461025b578063f2fde38b1461027b57600080fd5b8063957d3130146101a157806397d75776146101c15780639dafaf6d146101f557600080fd5b8063715018a6116100a5578063715018a61461014c5780638129fc1c146101615780638da5cb5b1461017657600080fd5b80632cca1cdf146100cc57806359bbc043146100ee57600080fd5b366100c757005b600080fd5b3480156100d857600080fd5b506100ec6100e7366004610d0a565b61029b565b005b3480156100fa57600080fd5b506101227f000000000000000000000000000000000000000000000000000000000000000081565b60405173ffffffffffffffffffffffffffffffffffffffff90911681526020015b60405180910390f35b34801561015857600080fd5b506100ec61035f565b34801561016d57600080fd5b506100ec610373565b34801561018257600080fd5b5060335473ffffffffffffffffffffffffffffffffffffffff16610122565b3480156101ad57600080fd5b506100ec6101bc366004610d3b565b6106ad565b3480156101cd57600080fd5b506101227f000000000000000000000000000000000000000000000000000000000000000081565b34801561020157600080fd5b50610238610210366004610d0a565b73ffffffffffffffffffffffffffffffffffffffff1660009081526065602052604090205490565b604051908152602001610143565b34801561025257600080fd5b506100ec6106f2565b34801561026757600080fd5b506100ec610276366004610d65565b610747565b34801561028757600080fd5b506100ec610296366004610d0a565b6108ca565b6102a361097e565b6040517f662aa11d00000000000000000000000000000000000000000000000000000000815230600482015273ffffffffffffffffffffffffffffffffffffffff82811660248301527f0000000000000000000000000000000000000000000000000000000000000000169063662aa11d906044016020604051808303816000875af1158015610337573d6000803e3d6000fd5b505050506040513d601f19601f8201168201806040525081019061035b9190610da1565b5050565b61036761097e565b61037160006109ff565b565b600054610100900460ff16158080156103935750600054600160ff909116105b806103ad5750303b1580156103ad575060005460ff166001145b61043e576040517f08c379a000000000000000000000000000000000000000000000000000000000815260206004820152602e60248201527f496e697469616c697a61626c653a20636f6e747261637420697320616c72656160448201527f647920696e697469616c697a656400000000000000000000000000000000000060648201526084015b60405180910390fd5b600080547fffffffffffffffffffffffffffffffffffffffffffffffffffffffffffffff00166001179055801561049c57600080547fffffffffffffffffffffffffffffffffffffffffffffffffffffffffffff00ff166101001790555b6104a4610a76565b6066602052611b587f6f48904484b35701cf1f41ad9068b394adf7e2f8a59d2309a04d10a155eaa72b819055611f407fe34b8b74e1cdcaa1b90aa77af7dd89e496ad9a4ae4a4d4759712101c7da2dce68190557f8a9614ba8c677ead4620d2169d8ea794c0a1c3b5c9b380bc9dc10aaa393fb419557fab85c4cd4478c33dd554873cedded4adcfce323c02b7f45103bdac1e0ee0d7ce556117707f754f4c762c979bf934b93bab847b259ce6c00c441fc6e34fd0aa1c248f374e9b81905560056000527fbb6269964462fa5be032fdd20e35661fa36f97bc87450c693076d6a2885fc1ee5573ffffffffffffffffffffffffffffffffffffffff7f00000000000000000000000000000000000000000000000000000000000000001615610646577f000000000000000000000000000000000000000000000000000000000000000073ffffffffffffffffffffffffffffffffffffffff16634e606c476040518163ffffffff1660e01b8152600401600060405180830381600087803b15801561062d57600080fd5b505af1158015610641573d6000803e3d6000fd5b505050505b80156106aa57600080547fffffffffffffffffffffffffffffffffffffffffffffffffffffffffffff00ff169055604051600181527f7f26b83ff96e1f2b6a682f133852f6798a09c465da95921460cefb3847402498906020015b60405180910390a15b50565b6106b561097e565b80606660008460058111156106cc576106cc610dba565b60058111156106dd576106dd610dba565b81526020810191909152604001600020555050565b3360008181526065602052604081208054919055906107119082610b15565b60408051338152602081018390527f712fd84fea7ca9889804a2092168c215381d1b1af5f71843eeb455309930d72f91016106a1565b3373ffffffffffffffffffffffffffffffffffffffff7f000000000000000000000000000000000000000000000000000000000000000016146107e6576040517f08c379a000000000000000000000000000000000000000000000000000000000815260206004820152601160248201527f6f6e6c7920706f6f6c20777261707065720000000000000000000000000000006044820152606401610435565b6000606660008360058111156107fe576107fe610dba565b600581111561080f5761080f610dba565b815260200190815260200160002054905060006108358285610bfe90919063ffffffff16565b73ffffffffffffffffffffffffffffffffffffffff861660009081526065602052604081208054929350839290919061086f908490610de9565b90915550506040805173ffffffffffffffffffffffffffffffffffffffff87168152602081018390527f667ad9c7167aea9bfcff8b321015abb0d8b77cf151a377e09e12b9017f9889fd910160405180910390a15050505050565b6108d261097e565b73ffffffffffffffffffffffffffffffffffffffff8116610975576040517f08c379a000000000000000000000000000000000000000000000000000000000815260206004820152602660248201527f4f776e61626c653a206e6577206f776e657220697320746865207a65726f206160448201527f64647265737300000000000000000000000000000000000000000000000000006064820152608401610435565b6106aa816109ff565b60335473ffffffffffffffffffffffffffffffffffffffff163314610371576040517f08c379a000000000000000000000000000000000000000000000000000000000815260206004820181905260248201527f4f776e61626c653a2063616c6c6572206973206e6f7420746865206f776e65726044820152606401610435565b6033805473ffffffffffffffffffffffffffffffffffffffff8381167fffffffffffffffffffffffff0000000000000000000000000000000000000000831681179093556040519116919082907f8be0079c531659141344cd1fd0a4f28419497f9722a3daafe3b4186f6b6457e090600090a35050565b600054610100900460ff16610b0d576040517f08c379a000000000000000000000000000000000000000000000000000000000815260206004820152602b60248201527f496e697469616c697a61626c653a20636f6e7472616374206973206e6f74206960448201527f6e697469616c697a696e670000000000000000000000000000000000000000006064820152608401610435565b610371610c41565b6040805160008082526020820190925273ffffffffffffffffffffffffffffffffffffffff8416908390604051610b4c9190610e28565b60006040518083038185875af1925050503d8060008114610b89576040519150601f19603f3d011682016040523d82523d6000602084013e610b8e565b606091505b5050905080610bf9576040517f08c379a000000000000000000000000000000000000000000000000000000000815260206004820152601360248201527f4554485f5452414e534645525f4641494c4544000000000000000000000000006044820152606401610435565b505050565b600081157fffffffffffffffffffffffffffffffffffffffffffffffffffffffffffffec7783900484111517610c3357600080fd5b506127109102611388010490565b600054610100900460ff16610cd8576040517f08c379a000000000000000000000000000000000000000000000000000000000815260206004820152602b60248201527f496e697469616c697a61626c653a20636f6e7472616374206973206e6f74206960448201527f6e697469616c697a696e670000000000000000000000000000000000000000006064820152608401610435565b610371336109ff565b803573ffffffffffffffffffffffffffffffffffffffff81168114610d0557600080fd5b919050565b600060208284031215610d1c57600080fd5b610d2582610ce1565b9392505050565b803560068110610d0557600080fd5b60008060408385031215610d4e57600080fd5b610d5783610d2c565b946020939093013593505050565b600080600060608486031215610d7a57600080fd5b610d8384610ce1565b925060208401359150610d9860408501610d2c565b90509250925092565b600060208284031215610db357600080fd5b5051919050565b7f4e487b7100000000000000000000000000000000000000000000000000000000600052602160045260246000fd5b60008219821115610e23577f4e487b7100000000000000000000000000000000000000000000000000000000600052601160045260246000fd5b500190565b6000825160005b81811015610e495760208186018101518583015201610e2f565b81811115610e58576000828501525b50919091019291505056fea2646970667358221220efd471c427a77a6e7a3c8631413088930e35d306c6c97afe8a433f3451250c8a64736f6c634300080a0033",
  "devdoc": {
    "kind": "dev",
    "methods": {
      "owner()": {
        "details": "Returns the address of the current owner."
      },
      "renounceOwnership()": {
        "details": "Leaves the contract without owner. It will not be possible to call `onlyOwner` functions. Can only be called by the current owner. NOTE: Renouncing ownership will leave the contract without an owner, thereby disabling any functionality that is only available to the owner."
      },
      "transferOwnership(address)": {
        "details": "Transfers ownership of the contract to a new account (`newOwner`). Can only be called by the current owner."
      }
    },
    "version": 1
  },
  "userdoc": {
    "kind": "user",
    "methods": {},
    "version": 1
  },
  "storageLayout": {
    "storage": [
      {
        "astId": 158,
        "contract": "contracts/GasRefund.sol:GasRefund",
        "label": "_initialized",
        "offset": 0,
        "slot": "0",
        "type": "t_uint8"
      },
      {
        "astId": 161,
        "contract": "contracts/GasRefund.sol:GasRefund",
        "label": "_initializing",
        "offset": 1,
        "slot": "0",
        "type": "t_bool"
      },
      {
        "astId": 913,
        "contract": "contracts/GasRefund.sol:GasRefund",
        "label": "__gap",
        "offset": 0,
        "slot": "1",
        "type": "t_array(t_uint256)50_storage"
      },
      {
        "astId": 30,
        "contract": "contracts/GasRefund.sol:GasRefund",
        "label": "_owner",
        "offset": 0,
        "slot": "51",
        "type": "t_address"
      },
      {
        "astId": 150,
        "contract": "contracts/GasRefund.sol:GasRefund",
        "label": "__gap",
        "offset": 0,
        "slot": "52",
        "type": "t_array(t_uint256)49_storage"
      },
      {
        "astId": 3731,
        "contract": "contracts/GasRefund.sol:GasRefund",
        "label": "_balances",
        "offset": 0,
        "slot": "101",
        "type": "t_mapping(t_address,t_uint256)"
      },
      {
        "astId": 3736,
        "contract": "contracts/GasRefund.sol:GasRefund",
        "label": "_refundRatio",
        "offset": 0,
        "slot": "102",
        "type": "t_mapping(t_enum(RefundType)27558,t_uint256)"
      }
    ],
    "types": {
      "t_address": {
        "encoding": "inplace",
        "label": "address",
        "numberOfBytes": "20"
      },
      "t_array(t_uint256)49_storage": {
        "base": "t_uint256",
        "encoding": "inplace",
        "label": "uint256[49]",
        "numberOfBytes": "1568"
      },
      "t_array(t_uint256)50_storage": {
        "base": "t_uint256",
        "encoding": "inplace",
        "label": "uint256[50]",
        "numberOfBytes": "1600"
      },
      "t_bool": {
        "encoding": "inplace",
        "label": "bool",
        "numberOfBytes": "1"
      },
      "t_enum(RefundType)27558": {
        "encoding": "inplace",
        "label": "enum IGasRefund.RefundType",
        "numberOfBytes": "1"
      },
      "t_mapping(t_address,t_uint256)": {
        "encoding": "mapping",
        "key": "t_address",
        "label": "mapping(address => uint256)",
        "numberOfBytes": "32",
        "value": "t_uint256"
      },
      "t_mapping(t_enum(RefundType)27558,t_uint256)": {
        "encoding": "mapping",
        "key": "t_enum(RefundType)27558",
        "label": "mapping(enum IGasRefund.RefundType => uint256)",
        "numberOfBytes": "32",
        "value": "t_uint256"
      },
      "t_uint256": {
        "encoding": "inplace",
        "label": "uint256",
        "numberOfBytes": "32"
      },
      "t_uint8": {
        "encoding": "inplace",
        "label": "uint8",
        "numberOfBytes": "1"
      }
    }
  }
}