{
  "address": "0x3795d531869dBBC46C2B2e361AEE6F8d1fDBF9c9",
  "abi": [
    {
      "inputs": [
        {
          "internalType": "address",
          "name": "_pool",
          "type": "address"
        },
        {
          "internalType": "address",
          "name": "_gasRefund",
          "type": "address"
        },
        {
          "internalType": "address",
          "name": "_aWETH",
          "type": "address"
        },
        {
          "internalType": "address",
          "name": "_aUSDB",
          "type": "address"
        }
      ],
      "stateMutability": "nonpayable",
      "type": "constructor"
    },
    {
      "anonymous": false,
      "inputs": [
        {
          "indexed": true,
          "internalType": "address",
          "name": "previousOwner",
          "type": "address"
        },
        {
          "indexed": true,
          "internalType": "address",
          "name": "newOwner",
          "type": "address"
        }
      ],
      "name": "OwnershipTransferred",
      "type": "event"
    },
    {
      "anonymous": false,
      "inputs": [
        {
          "indexed": true,
          "internalType": "address",
          "name": "token",
          "type": "address"
        },
        {
          "indexed": true,
          "internalType": "address",
          "name": "to",
          "type": "address"
        },
        {
          "indexed": false,
          "internalType": "uint256",
          "name": "amount",
          "type": "uint256"
        }
      ],
      "name": "RescueToken",
      "type": "event"
    },
    {
      "inputs": [],
      "name": "aUSDB",
      "outputs": [
        {
          "internalType": "address",
          "name": "",
          "type": "address"
        }
      ],
      "stateMutability": "view",
      "type": "function"
    },
    {
      "inputs": [],
      "name": "aWETH",
      "outputs": [
        {
          "internalType": "address",
          "name": "",
          "type": "address"
        }
      ],
      "stateMutability": "view",
      "type": "function"
    },
    {
      "inputs": [
        {
          "internalType": "address",
          "name": "distributor",
          "type": "address"
        }
      ],
      "name": "addDistributor",
      "outputs": [],
      "stateMutability": "nonpayable",
      "type": "function"
    },
    {
      "inputs": [],
      "name": "claimRefundedGas",
      "outputs": [],
      "stateMutability": "nonpayable",
      "type": "function"
    },
    {
      "inputs": [],
      "name": "distributeYield",
      "outputs": [],
      "stateMutability": "nonpayable",
      "type": "function"
    },
    {
      "inputs": [],
      "name": "gasRefund",
      "outputs": [
        {
          "internalType": "address",
          "name": "",
          "type": "address"
        }
      ],
      "stateMutability": "view",
      "type": "function"
    },
    {
      "inputs": [
        {
          "internalType": "address",
          "name": "",
          "type": "address"
        }
      ],
      "name": "isDistributor",
      "outputs": [
        {
          "internalType": "bool",
          "name": "",
          "type": "bool"
        }
      ],
      "stateMutability": "view",
      "type": "function"
    },
    {
      "inputs": [],
      "name": "owner",
      "outputs": [
        {
          "internalType": "address",
          "name": "",
          "type": "address"
        }
      ],
      "stateMutability": "view",
      "type": "function"
    },
    {
      "inputs": [],
      "name": "pool",
      "outputs": [
        {
          "internalType": "address",
          "name": "",
          "type": "address"
        }
      ],
      "stateMutability": "view",
      "type": "function"
    },
    {
      "inputs": [],
      "name": "renounceOwnership",
      "outputs": [],
      "stateMutability": "nonpayable",
      "type": "function"
    },
    {
      "inputs": [
        {
          "internalType": "address",
          "name": "token",
          "type": "address"
        },
        {
          "internalType": "address",
          "name": "to",
          "type": "address"
        },
        {
          "internalType": "uint256",
          "name": "amount",
          "type": "uint256"
        }
      ],
      "name": "rescueToken",
      "outputs": [],
      "stateMutability": "nonpayable",
      "type": "function"
    },
    {
      "inputs": [
        {
          "internalType": "address",
          "name": "target",
          "type": "address"
        },
        {
          "internalType": "address",
          "name": "newOwner",
          "type": "address"
        }
      ],
      "name": "transferOwnership",
      "outputs": [],
      "stateMutability": "nonpayable",
      "type": "function"
    },
    {
      "inputs": [
        {
          "internalType": "address",
          "name": "newOwner",
          "type": "address"
        }
      ],
      "name": "transferOwnership",
      "outputs": [],
      "stateMutability": "nonpayable",
      "type": "function"
    }
  ],
  "transactionHash": "0x80061750a996a4bb9f0f0593b28317ebd6dad382005fb94a9858d52867daebbe",
  "args": [
    "0x8A5A363e068D689295789FE39b21175B33964f14",
    "0xcf1c54Aed39E7773e23418C252d9d1aB11c49a62",
    "0x8A3De08BfA0E5F298550889f6801dD910526CAFD",
    "0x3df9C3E7105B2bEdd0b7b75c9ECF5C9041313186"
  ],
  "numDeployments": 1,
  "solcInputHash": "dae4eb65d51fd68af699a2fdc813309b",
  "bytecode": "0x6101006040523480156200001257600080fd5b50604051620012c5380380620012c58339810160408190526200003591620000d0565b620000403362000063565b6001600160a01b0393841660805291831660a052821660c0521660e0526200012d565b600080546001600160a01b038381166001600160a01b0319831681178455604051919092169283917f8be0079c531659141344cd1fd0a4f28419497f9722a3daafe3b4186f6b6457e09190a35050565b80516001600160a01b0381168114620000cb57600080fd5b919050565b60008060008060808587031215620000e757600080fd5b620000f285620000b3565b93506200010260208601620000b3565b92506200011260408601620000b3565b91506200012260608601620000b3565b905092959194509250565b60805160a05160c05160e0516111436200018260003960008181610219015261054401526000818161016b015261051b015260008181610144015261031c01526000818160e9015261034401526111436000f3fe608060405234801561001057600080fd5b50600436106100df5760003560e01c80637250e2241161008c5780638f0c86fa116100665780638f0c86fa146101e15780639c6a8ff014610214578063e5711e8b1461023b578063f2fde38b1461024e57600080fd5b80637250e224146101a85780638a570a12146101bb5780638da5cb5b146101c357600080fd5b80636d2a583a116100bd5780636d2a583a146101665780636d4354211461018d578063715018a6146101a057600080fd5b806316f0115b146100e45780632ba4b3dd146101355780635bc758e21461013f575b600080fd5b61010b7f000000000000000000000000000000000000000000000000000000000000000081565b60405173ffffffffffffffffffffffffffffffffffffffff90911681526020015b60405180910390f35b61013d610261565b005b61010b7f000000000000000000000000000000000000000000000000000000000000000081565b61010b7f000000000000000000000000000000000000000000000000000000000000000081565b61013d61019b366004610f7e565b6103a2565b61013d61042f565b61013d6101b6366004610fb7565b610443565b61013d61049d565b60005473ffffffffffffffffffffffffffffffffffffffff1661010b565b6102046101ef366004610fb7565b60016020526000908152604090205460ff1681565b604051901515815260200161012c565b61010b7f000000000000000000000000000000000000000000000000000000000000000081565b61013d610249366004610fdb565b610568565b61013d61025c366004610fb7565b610627565b3360009081526001602052604090205460ff166102df576040517f08c379a000000000000000000000000000000000000000000000000000000000815260206004820152600b60248201527f6e6f7420616c6c6f77656400000000000000000000000000000000000000000060448201526064015b60405180910390fd5b6040517f2cca1cdf00000000000000000000000000000000000000000000000000000000815273ffffffffffffffffffffffffffffffffffffffff7f0000000000000000000000000000000000000000000000000000000000000000811660048301527f00000000000000000000000000000000000000000000000000000000000000001690632cca1cdf90602401600060405180830381600087803b15801561038857600080fd5b505af115801561039c573d6000803e3d6000fd5b50505050565b6103aa6106de565b6040517ff2fde38b00000000000000000000000000000000000000000000000000000000815273ffffffffffffffffffffffffffffffffffffffff828116600483015283169063f2fde38b90602401600060405180830381600087803b15801561041357600080fd5b505af1158015610427573d6000803e3d6000fd5b505050505050565b6104376106de565b610441600061075f565b565b61044b6106de565b73ffffffffffffffffffffffffffffffffffffffff16600090815260016020819052604090912080547fffffffffffffffffffffffffffffffffffffffffffffffffffffffffffffff00169091179055565b3360009081526001602052604090205460ff16610516576040517f08c379a000000000000000000000000000000000000000000000000000000000815260206004820152600b60248201527f6e6f7420616c6c6f77656400000000000000000000000000000000000000000060448201526064016102d6565b61053f7f00000000000000000000000000000000000000000000000000000000000000006107d4565b6104417f00000000000000000000000000000000000000000000000000000000000000006107d4565b6105706106de565b73ffffffffffffffffffffffffffffffffffffffff831661059a576105958282610aef565b6105bb565b6105bb73ffffffffffffffffffffffffffffffffffffffff84168383610bd8565b8173ffffffffffffffffffffffffffffffffffffffff168373ffffffffffffffffffffffffffffffffffffffff167faabf44ab9d5bef08d1b60f287a337f0d11a248e49741ad189b429e47e98ba9108360405161061a91815260200190565b60405180910390a3505050565b61062f6106de565b73ffffffffffffffffffffffffffffffffffffffff81166106d2576040517f08c379a000000000000000000000000000000000000000000000000000000000815260206004820152602660248201527f4f776e61626c653a206e6577206f776e657220697320746865207a65726f206160448201527f646472657373000000000000000000000000000000000000000000000000000060648201526084016102d6565b6106db8161075f565b50565b60005473ffffffffffffffffffffffffffffffffffffffff163314610441576040517f08c379a000000000000000000000000000000000000000000000000000000000815260206004820181905260248201527f4f776e61626c653a2063616c6c6572206973206e6f7420746865206f776e657260448201526064016102d6565b6000805473ffffffffffffffffffffffffffffffffffffffff8381167fffffffffffffffffffffffff0000000000000000000000000000000000000000831681178455604051919092169283917f8be0079c531659141344cd1fd0a4f28419497f9722a3daafe3b4186f6b6457e09190a35050565b6040517f999927df00000000000000000000000000000000000000000000000000000000815230600482015273ffffffffffffffffffffffffffffffffffffffff82169063999927df90602401600060405180830381600087803b15801561083b57600080fd5b505af115801561084f573d6000803e3d6000fd5b5050505060008173ffffffffffffffffffffffffffffffffffffffff1663b16a19de6040518163ffffffff1660e01b8152600401602060405180830381865afa1580156108a0573d6000803e3d6000fd5b505050506040513d601f19601f820116820180604052508101906108c4919061101c565b6040517f70a0823100000000000000000000000000000000000000000000000000000000815230600482015290915060009073ffffffffffffffffffffffffffffffffffffffff8316906370a0823190602401602060405180830381865afa158015610934573d6000803e3d6000fd5b505050506040513d601f19601f820116820180604052508101906109589190611039565b905060008373ffffffffffffffffffffffffffffffffffffffff1663a38c2c3d6040518163ffffffff1660e01b8152600401602060405180830381865afa1580156109a7573d6000803e3d6000fd5b505050506040513d601f19601f820116820180604052508101906109cb919061101c565b6040517f095ea7b300000000000000000000000000000000000000000000000000000000815273ffffffffffffffffffffffffffffffffffffffff8083166004830152602482018590529192509084169063095ea7b3906044016020604051808303816000875af1158015610a44573d6000803e3d6000fd5b505050506040513d601f19601f82011682018060405250810190610a689190611052565b506040517fc8cc5cd80000000000000000000000000000000000000000000000000000000081526004810183905273ffffffffffffffffffffffffffffffffffffffff82169063c8cc5cd890602401600060405180830381600087803b158015610ad157600080fd5b505af1158015610ae5573d6000803e3d6000fd5b5050505050505050565b6040805160008082526020820190925273ffffffffffffffffffffffffffffffffffffffff8416908390604051610b2691906110a0565b60006040518083038185875af1925050503d8060008114610b63576040519150601f19603f3d011682016040523d82523d6000602084013e610b68565b606091505b5050905080610bd3576040517f08c379a000000000000000000000000000000000000000000000000000000000815260206004820152601360248201527f4554485f5452414e534645525f4641494c45440000000000000000000000000060448201526064016102d6565b505050565b6040805173ffffffffffffffffffffffffffffffffffffffff848116602483015260448083018590528351808403909101815260649092018352602080830180517bffffffffffffffffffffffffffffffffffffffffffffffffffffffff167fa9059cbb0000000000000000000000000000000000000000000000000000000017905283518085019094528084527f5361666545524332303a206c6f772d6c6576656c2063616c6c206661696c656490840152610bd392869291600091610ca3918516908490610d50565b9050805160001480610cc4575080806020019051810190610cc49190611052565b610bd3576040517f08c379a000000000000000000000000000000000000000000000000000000000815260206004820152602a60248201527f5361666545524332303a204552433230206f7065726174696f6e20646964206e60448201527f6f7420737563636565640000000000000000000000000000000000000000000060648201526084016102d6565b6060610d5f8484600085610d67565b949350505050565b606082471015610df9576040517f08c379a000000000000000000000000000000000000000000000000000000000815260206004820152602660248201527f416464726573733a20696e73756666696369656e742062616c616e636520666f60448201527f722063616c6c000000000000000000000000000000000000000000000000000060648201526084016102d6565b6000808673ffffffffffffffffffffffffffffffffffffffff168587604051610e2291906110a0565b60006040518083038185875af1925050503d8060008114610e5f576040519150601f19603f3d011682016040523d82523d6000602084013e610e64565b606091505b5091509150610e7587838387610e80565b979650505050505050565b60608315610f13578251610f0c5773ffffffffffffffffffffffffffffffffffffffff85163b610f0c576040517f08c379a000000000000000000000000000000000000000000000000000000000815260206004820152601d60248201527f416464726573733a2063616c6c20746f206e6f6e2d636f6e747261637400000060448201526064016102d6565b5081610d5f565b610d5f8383815115610f285781518083602001fd5b806040517f08c379a00000000000000000000000000000000000000000000000000000000081526004016102d691906110bc565b73ffffffffffffffffffffffffffffffffffffffff811681146106db57600080fd5b60008060408385031215610f9157600080fd5b8235610f9c81610f5c565b91506020830135610fac81610f5c565b809150509250929050565b600060208284031215610fc957600080fd5b8135610fd481610f5c565b9392505050565b600080600060608486031215610ff057600080fd5b8335610ffb81610f5c565b9250602084013561100b81610f5c565b929592945050506040919091013590565b60006020828403121561102e57600080fd5b8151610fd481610f5c565b60006020828403121561104b57600080fd5b5051919050565b60006020828403121561106457600080fd5b81518015158114610fd457600080fd5b60005b8381101561108f578181015183820152602001611077565b8381111561039c5750506000910152565b600082516110b2818460208701611074565b9190910192915050565b60208152600082518060208401526110db816040850160208701611074565b601f017fffffffffffffffffffffffffffffffffffffffffffffffffffffffffffffffe016919091016040019291505056fea2646970667358221220eaa8ec181bda0d1900dd007b7cb67cc03fa52ee82d133822620d37483753787764736f6c634300080a0033",
  "devdoc": {
    "kind": "dev",
    "methods": {
      "owner()": {
        "details": "Returns the address of the current owner."
      },
      "renounceOwnership()": {
        "details": "Leaves the contract without owner. It will not be possible to call `onlyOwner` functions. Can only be called by the current owner. NOTE: Renouncing ownership will leave the contract without an owner, thereby disabling any functionality that is only available to the owner."
      },
      "transferOwnership(address)": {
        "details": "Transfers ownership of the contract to a new account (`newOwner`). Can only be called by the current owner."
      }
    },
    "version": 1
  },
  "userdoc": {
    "kind": "user",
    "methods": {},
    "version": 1
  },
  "storageLayout": {
    "storage": [
      {
        "astId": 922,
        "contract": "contracts/YieldGasController.sol:YieldGasController",
        "label": "_owner",
        "offset": 0,
        "slot": "0",
        "type": "t_address"
      },
      {
        "astId": 6430,
        "contract": "contracts/YieldGasController.sol:YieldGasController",
        "label": "isDistributor",
        "offset": 0,
        "slot": "1",
        "type": "t_mapping(t_address,t_bool)"
      }
    ],
    "types": {
      "t_address": {
        "encoding": "inplace",
        "label": "address",
        "numberOfBytes": "20"
      },
      "t_bool": {
        "encoding": "inplace",
        "label": "bool",
        "numberOfBytes": "1"
      },
      "t_mapping(t_address,t_bool)": {
        "encoding": "mapping",
        "key": "t_address",
        "label": "mapping(address => bool)",
        "numberOfBytes": "32",
        "value": "t_bool"
      }
    }
  }
}