{
  "address": "0xF04383ecA1D1E2eD99f18ef5cFe21d56fe74b036",
  "abi": [
    {
      "inputs": [
        {
          "internalType": "uint256",
          "name": "fixedPrice",
          "type": "uint256"
        }
      ],
      "stateMutability": "nonpayable",
      "type": "constructor"
    },
    {
      "inputs": [],
      "name": "DecimalsAboveLimit",
      "type": "error"
    },
    {
      "inputs": [],
      "name": "DecimalsNotEqual",
      "type": "error"
    },
    {
      "inputs": [],
      "name": "FIXED_PRICE",
      "outputs": [
        {
          "internalType": "uint256",
          "name": "",
          "type": "uint256"
        }
      ],
      "stateMutability": "view",
      "type": "function"
    },
    {
      "inputs": [],
      "name": "latestAnswer",
      "outputs": [
        {
          "internalType": "int256",
          "name": "",
          "type": "int256"
        }
      ],
      "stateMutability": "view",
      "type": "function"
    }
  ],
  "transactionHash": "0x6366f82c09e3a26805bc8a25bb913c454b45e2ec9d28936595772991db0a599c",
  "args": [
    "100000000"
  ],
  "numDeployments": 1,
  "solcInputHash": "8b4a7c02608e279188f9689e803ab5af",
  "bytecode": "0x60a060405234801561001057600080fd5b5060405161013538038061013583398101604081905261002f91610037565b608052610050565b60006020828403121561004957600080fd5b5051919050565b60805160c761006e6000396000818160390152606f015260c76000f3fe6080604052348015600f57600080fd5b506004361060325760003560e01c806350d25bcd146037578063869cdfc314606b575b600080fd5b7f00000000000000000000000000000000000000000000000000000000000000005b60405190815260200160405180910390f35b60597f00000000000000000000000000000000000000000000000000000000000000008156fea26469706673582212203cfd629f369de7b1466a22ad8c59563dcfae04dcaa8a45fe462197bf6820361664736f6c634300080a0033",
  "devdoc": {
    "kind": "dev",
    "methods": {},
    "version": 1
  },
  "userdoc": {
    "kind": "user",
    "methods": {
      "latestAnswer()": {
        "notice": "Calculates the current answer based on the aggregators."
      }
    },
    "version": 1
  },
  "storageLayout": {
    "storage": [],
    "types": null
  }
}