{
  "address": "0x9E2e2024F3Dcf7377257FC7F2dE05d39c807186C",
  "abi": [
    {
      "inputs": [
        {
          "internalType": "address",
          "name": "_underlyingAssetOracle",
          "type": "address"
        },
        {
          "internalType": "address",
          "name": "_vault",
          "type": "address"
        },
        {
          "internalType": "uint8",
          "name": "_decimals",
          "type": "uint8"
        }
      ],
      "stateMutability": "nonpayable",
      "type": "constructor"
    },
    {
      "inputs": [],
      "name": "DecimalsAboveLimit",
      "type": "error"
    },
    {
      "inputs": [],
      "name": "DecimalsNotEqual",
      "type": "error"
    },
    {
      "inputs": [],
      "name": "decimals",
      "outputs": [
        {
          "internalType": "uint8",
          "name": "",
          "type": "uint8"
        }
      ],
      "stateMutability": "view",
      "type": "function"
    },
    {
      "inputs": [],
      "name": "latestAnswer",
      "outputs": [
        {
          "internalType": "int256",
          "name": "",
          "type": "int256"
        }
      ],
      "stateMutability": "view",
      "type": "function"
    },
    {
      "inputs": [],
      "name": "underlyingAssetOracle",
      "outputs": [
        {
          "internalType": "contract ICLSynchronicityPriceAdapter",
          "name": "",
          "type": "address"
        }
      ],
      "stateMutability": "view",
      "type": "function"
    },
    {
      "inputs": [],
      "name": "vault",
      "outputs": [
        {
          "internalType": "address",
          "name": "",
          "type": "address"
        }
      ],
      "stateMutability": "view",
      "type": "function"
    }
  ],
  "transactionHash": "0xe37efe142f58817bb99d501ded84c09f2b6da83d30eb832391eb88f9402ff36d",
  "args": [
    "0x7FbFbe6CA0261c8485652F05d8277aCF711D99DB",
    "0x3D4621fa5ff784dfB2fcDFd5B293224167F239db",
    "8"
  ],
  "numDeployments": 2,
  "solcInputHash": "ea23380999b8e96d3c0b8d0d2c1d08da",
  "bytecode": "0x60e060405234801561001057600080fd5b5060405161065238038061065283398101604081905261002f91610069565b6001600160a01b03928316608052911660a05260ff1660c0526100b6565b80516001600160a01b038116811461006457600080fd5b919050565b60008060006060848603121561007e57600080fd5b6100878461004d565b92506100956020850161004d565b9150604084015160ff811681146100ab57600080fd5b809150509250925092565b60805160a05160c0516105626100f0600039600060a901526000818160ee01526101180152600081816056015261022b01526105626000f3fe608060405234801561001057600080fd5b506004361061004c5760003560e01c80631373ce5614610051578063313ce567146100a257806350d25bcd146100d3578063fbfa77cf146100e9575b600080fd5b6100787f000000000000000000000000000000000000000000000000000000000000000081565b60405173ffffffffffffffffffffffffffffffffffffffff90911681526020015b60405180910390f35b60405160ff7f0000000000000000000000000000000000000000000000000000000000000000168152602001610099565b6100db610110565b604051908152602001610099565b6100787f000000000000000000000000000000000000000000000000000000000000000081565b6000806101aa7f000000000000000000000000000000000000000000000000000000000000000073ffffffffffffffffffffffffffffffffffffffff16630c2804446040518163ffffffff1660e01b8152600401602060405180830381865afa158015610181573d6000803e3d6000fd5b505050506040513d601f19601f820116820180604052508101906101a59190610399565b6102e3565b90506c193e5939a08ce9dbd4800000008112610227576040517f08c379a000000000000000000000000000000000000000000000000000000000815260206004820152601060248201527f696e76616c6964206c702070726963650000000000000000000000000000000060448201526064015b60405180910390fd5b60007f000000000000000000000000000000000000000000000000000000000000000073ffffffffffffffffffffffffffffffffffffffff166350d25bcd6040518163ffffffff1660e01b8152600401602060405180830381865afa158015610294573d6000803e3d6000fd5b505050506040513d601f19601f820116820180604052508101906102b89190610399565b90506c0c9f2c9cd04674edea400000006102d283836103e1565b6102dc919061049d565b9250505090565b60007f7fffffffffffffffffffffffffffffffffffffffffffffffffffffffffffffff821115610395576040517f08c379a000000000000000000000000000000000000000000000000000000000815260206004820152602860248201527f53616665436173743a2076616c756520646f65736e27742066697420696e206160448201527f6e20696e74323536000000000000000000000000000000000000000000000000606482015260840161021e565b5090565b6000602082840312156103ab57600080fd5b5051919050565b7f4e487b7100000000000000000000000000000000000000000000000000000000600052601160045260246000fd5b60007f7fffffffffffffffffffffffffffffffffffffffffffffffffffffffffffffff600084136000841385830485118282161615610422576104226103b2565b7f8000000000000000000000000000000000000000000000000000000000000000600087128682058812818416161561045d5761045d6103b2565b60008712925087820587128484161615610479576104796103b2565b8785058712818416161561048f5761048f6103b2565b505050929093029392505050565b6000826104d3577f4e487b7100000000000000000000000000000000000000000000000000000000600052601260045260246000fd5b7fffffffffffffffffffffffffffffffffffffffffffffffffffffffffffffffff83147f800000000000000000000000000000000000000000000000000000000000000083141615610527576105276103b2565b50059056fea26469706673582212201412ba0d85cdbe2bd0481821c8f6e0fbef1a048493362925d5ef2cb340e767ff64736f6c634300080a0033",
  "devdoc": {
    "kind": "dev",
    "methods": {},
    "version": 1
  },
  "userdoc": {
    "kind": "user",
    "methods": {
      "latestAnswer()": {
        "notice": "Calculates the current answer based on the aggregators."
      }
    },
    "version": 1
  },
  "storageLayout": {
    "storage": [],
    "types": null
  }
}