{
  "address": "0x1a8476F94F5d1351a3BE93b2A2437f750f9343d9",
  "abi": [
    {
      "inputs": [
        {
          "internalType": "address",
          "name": "pyth",
          "type": "address"
        },
        {
          "internalType": "bytes32",
          "name": "feedId",
          "type": "bytes32"
        },
        {
          "internalType": "uint256",
          "name": "expirationPeriod",
          "type": "uint256"
        },
        {
          "internalType": "uint8",
          "name": "_decimals",
          "type": "uint8"
        }
      ],
      "stateMutability": "nonpayable",
      "type": "constructor"
    },
    {
      "inputs": [],
      "name": "DecimalsAboveLimit",
      "type": "error"
    },
    {
      "inputs": [],
      "name": "DecimalsNotEqual",
      "type": "error"
    },
    {
      "inputs": [],
      "name": "decimals",
      "outputs": [
        {
          "internalType": "uint8",
          "name": "",
          "type": "uint8"
        }
      ],
      "stateMutability": "view",
      "type": "function"
    },
    {
      "inputs": [],
      "name": "latestAnswer",
      "outputs": [
        {
          "internalType": "int256",
          "name": "",
          "type": "int256"
        }
      ],
      "stateMutability": "view",
      "type": "function"
    }
  ],
  "transactionHash": "0x5914938529fb1535297549c18ad82a81aee2c55299cc549e62a5037ba1953366",
  "args": [
    "0xA2aa501b19aff244D90cc15a4Cf739D2725B5729",
    "0xff61491a931112ddf1bd8147cd1b641375f79f5825126d665480874634fd0ace",
    "86400",
    "8"
  ],
  "numDeployments": 1,
  "solcInputHash": "29775e3a00529988a57e6bb68da55c77",
  "bytecode": "0x61010060405234801561001157600080fd5b5060405161037a38038061037a83398101604081905261003091610052565b6001600160a01b0390931660805260a09190915260c05260ff1660e0526100b0565b6000806000806080858703121561006857600080fd5b84516001600160a01b038116811461007f57600080fd5b809450506020850151925060408501519150606085015160ff811681146100a557600080fd5b939692955090935050565b60805160a05160c05160e0516102956100e5600039600060420152600060d50152600060af0152600060fe01526102956000f3fe608060405234801561001057600080fd5b50600436106100365760003560e01c8063313ce5671461003b57806350d25bcd14610071575b600080fd5b60405160ff7f00000000000000000000000000000000000000000000000000000000000000001681526020015b60405180910390f35b610079610087565b604051908152602001610068565b6040517fa4ae35e00000000000000000000000000000000000000000000000000000000081527f000000000000000000000000000000000000000000000000000000000000000060048201527f000000000000000000000000000000000000000000000000000000000000000060248201526000907f000000000000000000000000000000000000000000000000000000000000000073ffffffffffffffffffffffffffffffffffffffff169063a4ae35e090604401608060405180830381865afa15801561015a573d6000803e3d6000fd5b505050506040513d601f19601f8201168201806040525081019061017e91906101b6565b5160070b919050565b805167ffffffffffffffff8116811461019f57600080fd5b919050565b8051600381900b811461019f57600080fd5b6000608082840312156101c857600080fd5b6040516080810181811067ffffffffffffffff82111715610212577f4e487b7100000000000000000000000000000000000000000000000000000000600052604160045260246000fd5b6040528251600781900b811461022757600080fd5b815261023560208401610187565b6020820152610246604084016101a4565b604082015260608301516060820152809150509291505056fea26469706673582212207667da75f3dab0e73d8a4004c6dc04da8a077e716d6ae2497aae261e8eb8703d64736f6c634300080a0033",
  "devdoc": {
    "kind": "dev",
    "methods": {},
    "version": 1
  },
  "userdoc": {
    "kind": "user",
    "methods": {
      "latestAnswer()": {
        "notice": "Calculates the current answer based on the aggregators."
      }
    },
    "version": 1
  },
  "storageLayout": {
    "storage": [],
    "types": null
  }
}