{
  "address": "0x6996D76d47123D0B7E8ebBC48F6CD728FE4341D7",
  "abi": [
    {
      "inputs": [
        {
          "internalType": "address",
          "name": "_underlyingAssetOracle",
          "type": "address"
        },
        {
          "internalType": "address",
          "name": "_cToken",
          "type": "address"
        },
        {
          "internalType": "uint8",
          "name": "_decimals",
          "type": "uint8"
        }
      ],
      "stateMutability": "nonpayable",
      "type": "constructor"
    },
    {
      "inputs": [],
      "name": "DecimalsAboveLimit",
      "type": "error"
    },
    {
      "inputs": [],
      "name": "DecimalsNotEqual",
      "type": "error"
    },
    {
      "anonymous": false,
      "inputs": [
        {
          "indexed": true,
          "internalType": "address",
          "name": "previousOwner",
          "type": "address"
        },
        {
          "indexed": true,
          "internalType": "address",
          "name": "newOwner",
          "type": "address"
        }
      ],
      "name": "OwnershipTransferred",
      "type": "event"
    },
    {
      "inputs": [],
      "name": "cToken",
      "outputs": [
        {
          "internalType": "address",
          "name": "",
          "type": "address"
        }
      ],
      "stateMutability": "view",
      "type": "function"
    },
    {
      "inputs": [],
      "name": "cTokenExchangeRate",
      "outputs": [
        {
          "internalType": "int256",
          "name": "",
          "type": "int256"
        }
      ],
      "stateMutability": "view",
      "type": "function"
    },
    {
      "inputs": [],
      "name": "decimals",
      "outputs": [
        {
          "internalType": "uint8",
          "name": "",
          "type": "uint8"
        }
      ],
      "stateMutability": "view",
      "type": "function"
    },
    {
      "inputs": [],
      "name": "latestAnswer",
      "outputs": [
        {
          "internalType": "int256",
          "name": "",
          "type": "int256"
        }
      ],
      "stateMutability": "view",
      "type": "function"
    },
    {
      "inputs": [],
      "name": "owner",
      "outputs": [
        {
          "internalType": "address",
          "name": "",
          "type": "address"
        }
      ],
      "stateMutability": "view",
      "type": "function"
    },
    {
      "inputs": [],
      "name": "renounceOwnership",
      "outputs": [],
      "stateMutability": "nonpayable",
      "type": "function"
    },
    {
      "inputs": [],
      "name": "syncExchangeRate",
      "outputs": [],
      "stateMutability": "nonpayable",
      "type": "function"
    },
    {
      "inputs": [
        {
          "internalType": "address",
          "name": "newOwner",
          "type": "address"
        }
      ],
      "name": "transferOwnership",
      "outputs": [],
      "stateMutability": "nonpayable",
      "type": "function"
    },
    {
      "inputs": [],
      "name": "underlyingAssetOracle",
      "outputs": [
        {
          "internalType": "contract ICLSynchronicityPriceAdapter",
          "name": "",
          "type": "address"
        }
      ],
      "stateMutability": "view",
      "type": "function"
    }
  ],
  "transactionHash": "0x872c98fa2c166dc50c22dfa77649d606e3f6030ac16d2be423c8497372a76882",
  "args": [
    "0xF04383ecA1D1E2eD99f18ef5cFe21d56fe74b036",
    "0x9aECEdCD6A82d26F2f86D331B17a1C1676442A87",
    "8"
  ],
  "numDeployments": 2,
  "solcInputHash": "3df73c3b32360c5dcdf044c627af46ca",
  "bytecode": "0x60e060405234801561001057600080fd5b506040516109e63803806109e683398101604081905261002f916101b0565b610038336100d2565b6001600160a01b03808416608052821660a081905260ff821660c0526040805163182df0f560e01b815290516100c6929163182df0f59160048083019260209291908290030181865afa158015610093573d6000803e3d6000fd5b505050506040513d601f19601f820116820180604052508101906100b791906101fd565b61012260201b6103e21760201c565b60015550610216915050565b600080546001600160a01b038381166001600160a01b0319831681178455604051919092169283917f8be0079c531659141344cd1fd0a4f28419497f9722a3daafe3b4186f6b6457e09190a35050565b60006001600160ff1b038211156101905760405162461bcd60e51b815260206004820152602860248201527f53616665436173743a2076616c756520646f65736e27742066697420696e2061604482015267371034b73a191a9b60c11b606482015260840160405180910390fd5b5090565b80516001600160a01b03811681146101ab57600080fd5b919050565b6000806000606084860312156101c557600080fd5b6101ce84610194565b92506101dc60208501610194565b9150604084015160ff811681146101f257600080fd5b809150509250925092565b60006020828403121561020f57600080fd5b5051919050565b60805160a05160c0516107946102526000396000610100015260008181610145015261028f01526000818160ad01526101b801526107946000f3fe608060405234801561001057600080fd5b50600436106100a35760003560e01c8063715018a611610076578063a0c8e8681161005b578063a0c8e8681461018f578063f0a422d014610197578063f2fde38b146101a057600080fd5b8063715018a6146101675780638da5cb5b1461017157600080fd5b80631373ce56146100a8578063313ce567146100f957806350d25bcd1461012a57806369e527da14610140575b600080fd5b6100cf7f000000000000000000000000000000000000000000000000000000000000000081565b60405173ffffffffffffffffffffffffffffffffffffffff90911681526020015b60405180910390f35b60405160ff7f00000000000000000000000000000000000000000000000000000000000000001681526020016100f0565b6101326101b3565b6040519081526020016100f0565b6100cf7f000000000000000000000000000000000000000000000000000000000000000081565b61016f61026e565b005b60005473ffffffffffffffffffffffffffffffffffffffff166100cf565b61016f610282565b61013260015481565b61016f6101ae36600461058e565b610326565b6000807f000000000000000000000000000000000000000000000000000000000000000073ffffffffffffffffffffffffffffffffffffffff166350d25bcd6040518163ffffffff1660e01b8152600401602060405180830381865afa158015610221573d6000803e3d6000fd5b505050506040513d601f19601f8201168201806040525081019061024591906105cb565b9050670de0b6b3a76400006001548261025e9190610613565b61026891906106cf565b91505090565b610276610498565b6102806000610519565b565b61028a610498565b6103217f000000000000000000000000000000000000000000000000000000000000000073ffffffffffffffffffffffffffffffffffffffff1663182df0f56040518163ffffffff1660e01b8152600401602060405180830381865afa1580156102f8573d6000803e3d6000fd5b505050506040513d601f19601f8201168201806040525081019061031c91906105cb565b6103e2565b600155565b61032e610498565b73ffffffffffffffffffffffffffffffffffffffff81166103d6576040517f08c379a000000000000000000000000000000000000000000000000000000000815260206004820152602660248201527f4f776e61626c653a206e6577206f776e657220697320746865207a65726f206160448201527f646472657373000000000000000000000000000000000000000000000000000060648201526084015b60405180910390fd5b6103df81610519565b50565b60007f7fffffffffffffffffffffffffffffffffffffffffffffffffffffffffffffff821115610494576040517f08c379a000000000000000000000000000000000000000000000000000000000815260206004820152602860248201527f53616665436173743a2076616c756520646f65736e27742066697420696e206160448201527f6e20696e7432353600000000000000000000000000000000000000000000000060648201526084016103cd565b5090565b60005473ffffffffffffffffffffffffffffffffffffffff163314610280576040517f08c379a000000000000000000000000000000000000000000000000000000000815260206004820181905260248201527f4f776e61626c653a2063616c6c6572206973206e6f7420746865206f776e657260448201526064016103cd565b6000805473ffffffffffffffffffffffffffffffffffffffff8381167fffffffffffffffffffffffff0000000000000000000000000000000000000000831681178455604051919092169283917f8be0079c531659141344cd1fd0a4f28419497f9722a3daafe3b4186f6b6457e09190a35050565b6000602082840312156105a057600080fd5b813573ffffffffffffffffffffffffffffffffffffffff811681146105c457600080fd5b9392505050565b6000602082840312156105dd57600080fd5b5051919050565b7f4e487b7100000000000000000000000000000000000000000000000000000000600052601160045260246000fd5b60007f7fffffffffffffffffffffffffffffffffffffffffffffffffffffffffffffff600084136000841385830485118282161615610654576106546105e4565b7f8000000000000000000000000000000000000000000000000000000000000000600087128682058812818416161561068f5761068f6105e4565b600087129250878205871284841616156106ab576106ab6105e4565b878505871281841616156106c1576106c16105e4565b505050929093029392505050565b600082610705577f4e487b7100000000000000000000000000000000000000000000000000000000600052601260045260246000fd5b7fffffffffffffffffffffffffffffffffffffffffffffffffffffffffffffffff83147f800000000000000000000000000000000000000000000000000000000000000083141615610759576107596105e4565b50059056fea264697066735822122094fc1d4cae0d30724bd000bf584f9c9ab1f49f7653edad2f77ef8629ec70527464736f6c634300080a0033",
  "devdoc": {
    "kind": "dev",
    "methods": {
      "owner()": {
        "details": "Returns the address of the current owner."
      },
      "renounceOwnership()": {
        "details": "Leaves the contract without owner. It will not be possible to call `onlyOwner` functions. Can only be called by the current owner. NOTE: Renouncing ownership will leave the contract without an owner, thereby disabling any functionality that is only available to the owner."
      },
      "transferOwnership(address)": {
        "details": "Transfers ownership of the contract to a new account (`newOwner`). Can only be called by the current owner."
      }
    },
    "version": 1
  },
  "userdoc": {
    "kind": "user",
    "methods": {
      "latestAnswer()": {
        "notice": "Calculates the current answer based on the aggregators."
      }
    },
    "version": 1
  },
  "storageLayout": {
    "storage": [
      {
        "astId": 903,
        "contract": "contracts/ExchangeRateAssetPriceAdapter.sol:ExchangeRateAssetPriceAdapter",
        "label": "_owner",
        "offset": 0,
        "slot": "0",
        "type": "t_address"
      },
      {
        "astId": 3617,
        "contract": "contracts/ExchangeRateAssetPriceAdapter.sol:ExchangeRateAssetPriceAdapter",
        "label": "cTokenExchangeRate",
        "offset": 0,
        "slot": "1",
        "type": "t_int256"
      }
    ],
    "types": {
      "t_address": {
        "encoding": "inplace",
        "label": "address",
        "numberOfBytes": "20"
      },
      "t_int256": {
        "encoding": "inplace",
        "label": "int256",
        "numberOfBytes": "32"
      }
    }
  }
}