{
  "address": "0xfDe98aB7a6602ad55462297D952CE25b58743140",
  "abi": [
    {
      "inputs": [
        {
          "internalType": "address",
          "name": "_lendingPool",
          "type": "address"
        },
        {
          "internalType": "address",
          "name": "_weth",
          "type": "address"
        }
      ],
      "stateMutability": "nonpayable",
      "type": "constructor"
    },
    {
      "inputs": [],
      "name": "AddressZero",
      "type": "error"
    },
    {
      "inputs": [],
      "name": "FeatureNotActive",
      "type": "error"
    },
    {
      "inputs": [],
      "name": "InvalidFlashLoan",
      "type": "error"
    },
    {
      "inputs": [],
      "name": "InvalidMsgValue",
      "type": "error"
    },
    {
      "inputs": [],
      "name": "InvalidParam",
      "type": "error"
    },
    {
      "inputs": [],
      "name": "ReceiveNotAllowed",
      "type": "error"
    },
    {
      "inputs": [],
      "name": "ZeroAmount",
      "type": "error"
    },
    {
      "anonymous": false,
      "inputs": [
        {
          "indexed": false,
          "internalType": "address",
          "name": "user",
          "type": "address"
        },
        {
          "indexed": false,
          "internalType": "address",
          "name": "asset",
          "type": "address"
        },
        {
          "indexed": false,
          "internalType": "uint256",
          "name": "cashAmount",
          "type": "uint256"
        },
        {
          "indexed": false,
          "internalType": "uint256",
          "name": "borrowAmount",
          "type": "uint256"
        }
      ],
      "name": "LeverageDeposit",
      "type": "event"
    },
    {
      "anonymous": false,
      "inputs": [
        {
          "indexed": false,
          "internalType": "address",
          "name": "user",
          "type": "address"
        },
        {
          "indexed": false,
          "internalType": "address",
          "name": "asset",
          "type": "address"
        },
        {
          "indexed": false,
          "internalType": "uint256",
          "name": "cashAmount",
          "type": "uint256"
        },
        {
          "indexed": false,
          "internalType": "uint256",
          "name": "borrowAmount",
          "type": "uint256"
        },
        {
          "indexed": false,
          "internalType": "address",
          "name": "depositAsset",
          "type": "address"
        }
      ],
      "name": "MultiplierDeposit",
      "type": "event"
    },
    {
      "anonymous": false,
      "inputs": [
        {
          "indexed": true,
          "internalType": "address",
          "name": "previousOwner",
          "type": "address"
        },
        {
          "indexed": true,
          "internalType": "address",
          "name": "newOwner",
          "type": "address"
        }
      ],
      "name": "OwnershipTransferred",
      "type": "event"
    },
    {
      "anonymous": false,
      "inputs": [
        {
          "indexed": true,
          "internalType": "address",
          "name": "token",
          "type": "address"
        },
        {
          "indexed": true,
          "internalType": "address",
          "name": "to",
          "type": "address"
        },
        {
          "indexed": false,
          "internalType": "uint256",
          "name": "amount",
          "type": "uint256"
        }
      ],
      "name": "RescueToken",
      "type": "event"
    },
    {
      "inputs": [],
      "name": "ADDRESSES_PROVIDER",
      "outputs": [
        {
          "internalType": "contract IPoolAddressesProvider",
          "name": "",
          "type": "address"
        }
      ],
      "stateMutability": "view",
      "type": "function"
    },
    {
      "inputs": [],
      "name": "POOL",
      "outputs": [
        {
          "internalType": "contract IPool",
          "name": "",
          "type": "address"
        }
      ],
      "stateMutability": "view",
      "type": "function"
    },
    {
      "inputs": [],
      "name": "WETH",
      "outputs": [
        {
          "internalType": "contract IWETH",
          "name": "",
          "type": "address"
        }
      ],
      "stateMutability": "view",
      "type": "function"
    },
    {
      "inputs": [
        {
          "internalType": "address",
          "name": "asset",
          "type": "address"
        },
        {
          "internalType": "uint256",
          "name": "amount",
          "type": "uint256"
        },
        {
          "internalType": "uint256",
          "name": "interestRateMode",
          "type": "uint256"
        }
      ],
      "name": "borrowERC20",
      "outputs": [],
      "stateMutability": "nonpayable",
      "type": "function"
    },
    {
      "inputs": [
        {
          "internalType": "uint256",
          "name": "amount",
          "type": "uint256"
        },
        {
          "internalType": "uint256",
          "name": "interestRateMode",
          "type": "uint256"
        }
      ],
      "name": "borrowETH",
      "outputs": [],
      "stateMutability": "nonpayable",
      "type": "function"
    },
    {
      "inputs": [
        {
          "internalType": "address",
          "name": "recipient",
          "type": "address"
        }
      ],
      "name": "claimRefundedGas",
      "outputs": [],
      "stateMutability": "nonpayable",
      "type": "function"
    },
    {
      "inputs": [
        {
          "internalType": "address",
          "name": "onBehalfOf",
          "type": "address"
        }
      ],
      "name": "depositETH",
      "outputs": [],
      "stateMutability": "payable",
      "type": "function"
    },
    {
      "inputs": [
        {
          "internalType": "address",
          "name": "asset",
          "type": "address"
        },
        {
          "internalType": "uint256",
          "name": "amount",
          "type": "uint256"
        },
        {
          "internalType": "uint256",
          "name": "premium",
          "type": "uint256"
        },
        {
          "internalType": "address",
          "name": "initiator",
          "type": "address"
        },
        {
          "internalType": "bytes",
          "name": "params",
          "type": "bytes"
        }
      ],
      "name": "executeOperation",
      "outputs": [
        {
          "internalType": "bool",
          "name": "",
          "type": "bool"
        }
      ],
      "stateMutability": "nonpayable",
      "type": "function"
    },
    {
      "inputs": [],
      "name": "gasRefund",
      "outputs": [
        {
          "internalType": "address",
          "name": "",
          "type": "address"
        }
      ],
      "stateMutability": "view",
      "type": "function"
    },
    {
      "inputs": [
        {
          "internalType": "address",
          "name": "asset",
          "type": "address"
        },
        {
          "internalType": "uint256",
          "name": "cashAmount",
          "type": "uint256"
        },
        {
          "internalType": "uint256",
          "name": "borrowAmount",
          "type": "uint256"
        }
      ],
      "name": "leverageDeposit",
      "outputs": [],
      "stateMutability": "payable",
      "type": "function"
    },
    {
      "inputs": [
        {
          "internalType": "address",
          "name": "asset",
          "type": "address"
        },
        {
          "internalType": "uint256",
          "name": "cashAmount",
          "type": "uint256"
        },
        {
          "internalType": "uint256",
          "name": "borrowAmount",
          "type": "uint256"
        },
        {
          "internalType": "address",
          "name": "depositAsset",
          "type": "address"
        },
        {
          "internalType": "uint256",
          "name": "minDepositAmount",
          "type": "uint256"
        },
        {
          "internalType": "address[]",
          "name": "swapPath",
          "type": "address[]"
        }
      ],
      "name": "multiplierDeposit",
      "outputs": [],
      "stateMutability": "payable",
      "type": "function"
    },
    {
      "inputs": [],
      "name": "owner",
      "outputs": [
        {
          "internalType": "address",
          "name": "",
          "type": "address"
        }
      ],
      "stateMutability": "view",
      "type": "function"
    },
    {
      "inputs": [],
      "name": "renounceOwnership",
      "outputs": [],
      "stateMutability": "nonpayable",
      "type": "function"
    },
    {
      "inputs": [
        {
          "internalType": "address",
          "name": "asset",
          "type": "address"
        },
        {
          "internalType": "uint256",
          "name": "amount",
          "type": "uint256"
        },
        {
          "internalType": "uint256",
          "name": "interestRateMode",
          "type": "uint256"
        },
        {
          "internalType": "address",
          "name": "onBehalfOf",
          "type": "address"
        }
      ],
      "name": "repayERC20",
      "outputs": [],
      "stateMutability": "nonpayable",
      "type": "function"
    },
    {
      "inputs": [
        {
          "internalType": "uint256",
          "name": "amount",
          "type": "uint256"
        },
        {
          "internalType": "uint256",
          "name": "rateMode",
          "type": "uint256"
        },
        {
          "internalType": "address",
          "name": "onBehalfOf",
          "type": "address"
        }
      ],
      "name": "repayETH",
      "outputs": [],
      "stateMutability": "payable",
      "type": "function"
    },
    {
      "inputs": [
        {
          "internalType": "address",
          "name": "token",
          "type": "address"
        },
        {
          "internalType": "address",
          "name": "to",
          "type": "address"
        },
        {
          "internalType": "uint256",
          "name": "amount",
          "type": "uint256"
        }
      ],
      "name": "rescueToken",
      "outputs": [],
      "stateMutability": "nonpayable",
      "type": "function"
    },
    {
      "inputs": [
        {
          "internalType": "address",
          "name": "_gasRefund",
          "type": "address"
        }
      ],
      "name": "setGasRefund",
      "outputs": [],
      "stateMutability": "nonpayable",
      "type": "function"
    },
    {
      "inputs": [
        {
          "internalType": "address",
          "name": "_swapRouter",
          "type": "address"
        }
      ],
      "name": "setSwapRouter",
      "outputs": [],
      "stateMutability": "nonpayable",
      "type": "function"
    },
    {
      "inputs": [
        {
          "internalType": "address",
          "name": "asset",
          "type": "address"
        },
        {
          "internalType": "uint256",
          "name": "amount",
          "type": "uint256"
        },
        {
          "internalType": "address",
          "name": "onBehalfOf",
          "type": "address"
        }
      ],
      "name": "supplyERC20",
      "outputs": [],
      "stateMutability": "nonpayable",
      "type": "function"
    },
    {
      "inputs": [],
      "name": "swapRouter",
      "outputs": [
        {
          "internalType": "contract IUniswapV2Router02",
          "name": "",
          "type": "address"
        }
      ],
      "stateMutability": "view",
      "type": "function"
    },
    {
      "inputs": [
        {
          "internalType": "address",
          "name": "newOwner",
          "type": "address"
        }
      ],
      "name": "transferOwnership",
      "outputs": [],
      "stateMutability": "nonpayable",
      "type": "function"
    },
    {
      "inputs": [
        {
          "internalType": "address",
          "name": "asset",
          "type": "address"
        },
        {
          "internalType": "uint256",
          "name": "amount",
          "type": "uint256"
        },
        {
          "internalType": "address",
          "name": "to",
          "type": "address"
        }
      ],
      "name": "withdrawERC20",
      "outputs": [],
      "stateMutability": "nonpayable",
      "type": "function"
    },
    {
      "inputs": [
        {
          "internalType": "uint256",
          "name": "amount",
          "type": "uint256"
        },
        {
          "internalType": "address",
          "name": "to",
          "type": "address"
        }
      ],
      "name": "withdrawETH",
      "outputs": [],
      "stateMutability": "nonpayable",
      "type": "function"
    },
    {
      "stateMutability": "payable",
      "type": "receive"
    }
  ],
  "transactionHash": "0x91297ba6eeab7d629f76253c68c4d89b93fb0f732f319b08b85899c134170a6e",
  "args": [
    "0xd2499b3c8611E36ca89A70Fda2A72C49eE19eAa8",
    "0x4300000000000000000000000000000000000004"
  ],
  "numDeployments": 2,
  "solcInputHash": "8f8cf24bc973924d3a44e7c1fafe57ee",
  "bytecode": "0x60c06040523480156200001157600080fd5b506040516200453638038062004536833981016040819052620000349162000260565b6200003f33620001f3565b600180556001600160a01b0382166200006b57604051639fabe1c160e01b815260040160405180910390fd5b6001600160a01b0381166200009357604051639fabe1c160e01b815260040160405180910390fd5b6001600160a01b03828116608081905290821660a081905260405163095ea7b360e01b8152600481019290925260001960248301529063095ea7b3906044016020604051808303816000875af1158015620000f2573d6000803e3d6000fd5b505050506040513d601f19601f8201168201806040525081019062000118919062000298565b5060006080516001600160a01b03166397d757766040518163ffffffff1660e01b8152600401602060405180830381865afa1580156200015c573d6000803e3d6000fd5b505050506040513d601f19601f82011682018060405250810190620001829190620002c3565b90506001600160a01b03811615620001ea57806001600160a01b0316634e606c476040518163ffffffff1660e01b8152600401600060405180830381600087803b158015620001d057600080fd5b505af1158015620001e5573d6000803e3d6000fd5b505050505b505050620002e1565b600080546001600160a01b038381166001600160a01b0319831681178455604051919092169283917f8be0079c531659141344cd1fd0a4f28419497f9722a3daafe3b4186f6b6457e09190a35050565b80516001600160a01b03811681146200025b57600080fd5b919050565b600080604083850312156200027457600080fd5b6200027f8362000243565b91506200028f6020840162000243565b90509250929050565b600060208284031215620002ab57600080fd5b81518015158114620002bc57600080fd5b9392505050565b600060208284031215620002d657600080fd5b620002bc8262000243565b60805160a05161411062000426600039600081816101a10152818161041a01528181610f3601528181610fb7015281816113b70152818161147601528181611580015281816117be015281816118ae01528181611cdb01528181611dc001528181611eef01528181611f700152818161274601528181612880015261293f0152600081816103a8015281816105200152818161062001528181610730015281816107bb015281816108540152818161091201528181610a0901528181610bdf01528181610c0501528181610d0401528181610de10152818161115701528181611266015281816114b6015281816115ab015281816117f6015281816119d601528181611c0301528181611d210152818161207f015281816121de015281816122630152818161237a015281816124ec01528181612779015261297f01526141106000f3fe6080604052600436106101845760003560e01c8063715018a6116100d6578063c31c9c071161007f578063e5711e8b11610059578063e5711e8b146104c9578063f2fde38b146104e9578063f538ba511461050957600080fd5b8063c31c9c071461045c578063c44a7be914610489578063d4ac1926146104a957600080fd5b8063a7fb3509116100b0578063a7fb3509146103f5578063ad5c464814610408578063b9739e871461043c57600080fd5b8063715018a6146103815780637535d246146103965780638da5cb5b146103ca57600080fd5b80632d2da806116101385780635bc758e2116101125780635bc758e2146103145780635fc3ea0b146103415780636fab3b731461036157600080fd5b80632d2da806146102c157806336118b52146102d457806341273657146102f457600080fd5b80631b11d0ff116101695780631b11d0ff1461025e5780631c95d9331461028e5780632cca1cdf146102a157600080fd5b80630542975c146101ff5780631a2467a51461023e57600080fd5b366101fa573373ffffffffffffffffffffffffffffffffffffffff7f000000000000000000000000000000000000000000000000000000000000000016146101f8576040517fcb263c3f00000000000000000000000000000000000000000000000000000000815260040160405180910390fd5b005b600080fd5b34801561020b57600080fd5b5061021461051c565b60405173ffffffffffffffffffffffffffffffffffffffff90911681526020015b60405180910390f35b34801561024a57600080fd5b506101f8610259366004613526565b6105b2565b34801561026a57600080fd5b5061027e61027936600461355b565b6106c8565b6040519015158152602001610235565b6101f861029c366004613605565b610e23565b3480156102ad57600080fd5b506101f86102bc3660046136bd565b61125a565b6101f86102cf3660046136bd565b6113ad565b3480156102e057600080fd5b506101f86102ef3660046136e1565b61153b565b34801561030057600080fd5b506101f861030f3660046136bd565b611937565b34801561032057600080fd5b506003546102149073ffffffffffffffffffffffffffffffffffffffff1681565b34801561034d57600080fd5b506101f861035c366004613711565b611986565b34801561036d57600080fd5b506101f861037c366004613753565b611c93565b34801561038d57600080fd5b506101f8611e46565b3480156103a257600080fd5b506102147f000000000000000000000000000000000000000000000000000000000000000081565b3480156103d657600080fd5b5060005473ffffffffffffffffffffffffffffffffffffffff16610214565b6101f8610403366004613526565b611e5a565b34801561041457600080fd5b506102147f000000000000000000000000000000000000000000000000000000000000000081565b34801561044857600080fd5b506101f8610457366004613711565b612171565b34801561046857600080fd5b506002546102149073ffffffffffffffffffffffffffffffffffffffff1681565b34801561049557600080fd5b506101f86104a43660046136bd565b6122d3565b3480156104b557600080fd5b506101f86104c4366004613775565b612322565b3480156104d557600080fd5b506101f86104e43660046137bf565b612589565b3480156104f557600080fd5b506101f86105043660046136bd565b612648565b6101f8610517366004613800565b612701565b60007f000000000000000000000000000000000000000000000000000000000000000073ffffffffffffffffffffffffffffffffffffffff16630542975c6040518163ffffffff1660e01b8152600401602060405180830381865afa158015610589573d6000803e3d6000fd5b505050506040513d601f19601f820116820180604052508101906105ad919061382e565b905090565b6105ba612a1c565b60005a6040517fa415bcad00000000000000000000000000000000000000000000000000000000815273ffffffffffffffffffffffffffffffffffffffff86811660048301526024820186905260448201859052600060648301523360848301529192507f00000000000000000000000000000000000000000000000000000000000000009091169063a415bcad9060a401600060405180830381600087803b15801561066657600080fd5b505af115801561067a573d6000803e3d6000fd5b5050505060005a9050610697610690828461387a565b6002612a90565b6106b873ffffffffffffffffffffffffffffffffffffffff86163386612b43565b50506106c360018055565b505050565b6000806106d7838501856138a5565b905060008160018111156106ed576106ed6138c0565b141561097e5760008080610704866020818a6138ef565b8101906107119190613526565b919450925090503373ffffffffffffffffffffffffffffffffffffffff7f000000000000000000000000000000000000000000000000000000000000000016141580610773575073ffffffffffffffffffffffffffffffffffffffff88163014155b8061077e5750898114155b156107b5576040517fbafe1c5300000000000000000000000000000000000000000000000000000000815260040160405180910390fd5b6107df8b7f0000000000000000000000000000000000000000000000000000000000000000612c17565b6000896107ec8385613919565b6107f6919061387a565b6040517f617ba03700000000000000000000000000000000000000000000000000000000815273ffffffffffffffffffffffffffffffffffffffff8e81166004830152602482018390528681166044830152600060648301529192507f00000000000000000000000000000000000000000000000000000000000000009091169063617ba03790608401600060405180830381600087803b15801561089a57600080fd5b505af11580156108ae573d6000803e3d6000fd5b50506040517fa415bcad00000000000000000000000000000000000000000000000000000000815273ffffffffffffffffffffffffffffffffffffffff8f8116600483015260248201869052600260448301526000606483015287811660848301527f000000000000000000000000000000000000000000000000000000000000000016925063a415bcad915060a401600060405180830381600087803b15801561095857600080fd5b505af115801561096c573d6000803e3d6000fd5b50505050600195505050505050610e19565b6001816001811115610992576109926138c0565b1415610e13576109e06040518060a00160405280600073ffffffffffffffffffffffffffffffffffffffff168152602001600081526020016000815260200160008152602001606081525090565b6109ec84860186613a20565b90925090503373ffffffffffffffffffffffffffffffffffffffff7f000000000000000000000000000000000000000000000000000000000000000016141580610a4c575073ffffffffffffffffffffffffffffffffffffffff86163014155b80610a5b575087816040015114155b15610a92576040517fbafe1c5300000000000000000000000000000000000000000000000000000000815260040160405180910390fd5b600254610ab6908a9073ffffffffffffffffffffffffffffffffffffffff16612c17565b60008782604001518360200151610acd9190613919565b610ad7919061387a565b600254606084015160808501516040517f38ed173900000000000000000000000000000000000000000000000000000000815293945060009373ffffffffffffffffffffffffffffffffffffffff909316926338ed173992610b4192879230904290600401613b37565b6000604051808303816000875af1158015610b60573d6000803e3d6000fd5b505050506040513d6000823e601f3d9081017fffffffffffffffffffffffffffffffffffffffffffffffffffffffffffffffe0168201604052610ba69190810190613bc2565b60808401518051919250600091610bbf9060019061387a565b81518110610bcf57610bcf613c48565b60200260200101519050610c03817f0000000000000000000000000000000000000000000000000000000000000000612c17565b7f000000000000000000000000000000000000000000000000000000000000000073ffffffffffffffffffffffffffffffffffffffff1663617ba037828460018651610c4f919061387a565b81518110610c5f57610c5f613c48565b602090810291909101015187516040517fffffffff0000000000000000000000000000000000000000000000000000000060e086901b16815273ffffffffffffffffffffffffffffffffffffffff9384166004820152602481019290925291909116604482015260006064820152608401600060405180830381600087803b158015610cea57600080fd5b505af1158015610cfe573d6000803e3d6000fd5b505050507f000000000000000000000000000000000000000000000000000000000000000073ffffffffffffffffffffffffffffffffffffffff1663a415bcad8d86604001516002600089600001516040518663ffffffff1660e01b8152600401610da995949392919073ffffffffffffffffffffffffffffffffffffffff95861681526020810194909452604084019290925261ffff166060830152909116608082015260a00190565b600060405180830381600087803b158015610dc357600080fd5b505af1158015610dd7573d6000803e3d6000fd5b50505050610e058c7f0000000000000000000000000000000000000000000000000000000000000000612c17565b600195505050505050610e19565b60009150505b9695505050505050565b610e2b612a1c565b60025473ffffffffffffffffffffffffffffffffffffffff16610e7a576040517ff3f0984900000000000000000000000000000000000000000000000000000000815260040160405180910390fd5b8373ffffffffffffffffffffffffffffffffffffffff168773ffffffffffffffffffffffffffffffffffffffff161415610ee0576040517fd252903400000000000000000000000000000000000000000000000000000000815260040160405180910390fd5b73ffffffffffffffffffffffffffffffffffffffff8716610fdd57348614610f34576040517f1841b4e100000000000000000000000000000000000000000000000000000000815260040160405180910390fd5b7f000000000000000000000000000000000000000000000000000000000000000073ffffffffffffffffffffffffffffffffffffffff1663d0e30db0876040518263ffffffff1660e01b81526004016000604051808303818588803b158015610f9c57600080fd5b505af1158015610fb0573d6000803e3d6000fd5b50505050507f0000000000000000000000000000000000000000000000000000000000000000965061103d565b3415611015576040517f1841b4e100000000000000000000000000000000000000000000000000000000815260040160405180910390fd5b851561103d5761103d73ffffffffffffffffffffffffffffffffffffffff8816333089612cf2565b6110856040518060a00160405280600073ffffffffffffffffffffffffffffffffffffffff168152602001600081526020016000815260200160008152602001606081525090565b3381526020808201889052604080830188905260608301869052805184830281810184019092528481529185918591829190850190849080828437600092018290525060808601949094525050505a905060006001836040516020016110ec929190613c8b565b604080517fffffffffffffffffffffffffffffffffffffffffffffffffffffffffffffffe0818403018152908290527f42b0b77c000000000000000000000000000000000000000000000000000000008252915073ffffffffffffffffffffffffffffffffffffffff7f000000000000000000000000000000000000000000000000000000000000000016906342b0b77c906111959030908e908d908790600090600401613da6565b600060405180830381600087803b1580156111af57600080fd5b505af11580156111c3573d6000803e3d6000fd5b5050505060005a90506111e06111d9828561387a565b6005612a90565b6040805133815273ffffffffffffffffffffffffffffffffffffffff8d811660208301528183018d9052606082018c90528a16608082015290517f557ed241a95c9fc974f8ca0089a9ff212637a88579332793e60c15364dff525c9181900360a00190a15050505061125160018055565b50505050505050565b611262612d50565b60007f000000000000000000000000000000000000000000000000000000000000000073ffffffffffffffffffffffffffffffffffffffff166397d757766040518163ffffffff1660e01b8152600401602060405180830381865afa1580156112cf573d6000803e3d6000fd5b505050506040513d601f19601f820116820180604052508101906112f3919061382e565b905073ffffffffffffffffffffffffffffffffffffffff8116156113a9576040517f662aa11d00000000000000000000000000000000000000000000000000000000815230600482015273ffffffffffffffffffffffffffffffffffffffff838116602483015282169063662aa11d906044016020604051808303816000875af1158015611385573d6000803e3d6000fd5b505050506040513d601f19601f820116820180604052508101906106c39190613e06565b5050565b6113b5612a1c565b7f000000000000000000000000000000000000000000000000000000000000000073ffffffffffffffffffffffffffffffffffffffff1663d0e30db0346040518263ffffffff1660e01b81526004016000604051808303818588803b15801561141d57600080fd5b505af1158015611431573d6000803e3d6000fd5b505050505060005a6040517fe8eda9df00000000000000000000000000000000000000000000000000000000815273ffffffffffffffffffffffffffffffffffffffff7f0000000000000000000000000000000000000000000000000000000000000000811660048301523460248301528481166044830152600060648301529192507f00000000000000000000000000000000000000000000000000000000000000009091169063e8eda9df90608401600060405180830381600087803b1580156114fc57600080fd5b505af1158015611510573d6000803e3d6000fd5b5050505060005a905061152d611526828461387a565b6000612a90565b505061153860018055565b50565b611543612a1c565b6040517f35ea6a7500000000000000000000000000000000000000000000000000000000815273ffffffffffffffffffffffffffffffffffffffff7f0000000000000000000000000000000000000000000000000000000000000000811660048301526000917f0000000000000000000000000000000000000000000000000000000000000000909116906335ea6a75906024016101e060405180830381865afa1580156115f5573d6000803e3d6000fd5b505050506040513d601f19601f820116820180604052508101906116199190613ea8565b61010001516040517f70a0823100000000000000000000000000000000000000000000000000000000815233600482015290915060009073ffffffffffffffffffffffffffffffffffffffff8316906370a0823190602401602060405180830381865afa15801561168e573d6000803e3d6000fd5b505050506040513d601f19601f820116820180604052508101906116b29190613e06565b9050837fffffffffffffffffffffffffffffffffffffffffffffffffffffffffffffffff8114156116e05750805b6040517f23b872dd0000000000000000000000000000000000000000000000000000000081523360048201523060248201526044810182905273ffffffffffffffffffffffffffffffffffffffff8416906323b872dd906064016020604051808303816000875af1158015611759573d6000803e3d6000fd5b505050506040513d601f19601f8201168201806040525081019061177d9190613fcb565b5060005a6040517f69328dec00000000000000000000000000000000000000000000000000000000815273ffffffffffffffffffffffffffffffffffffffff7f000000000000000000000000000000000000000000000000000000000000000081166004830152602482018590523060448301529192507f0000000000000000000000000000000000000000000000000000000000000000909116906369328dec906064016020604051808303816000875af1158015611841573d6000803e3d6000fd5b505050506040513d601f19601f820116820180604052508101906118659190613e06565b5060005a905061187f611878828461387a565b6001612a90565b6040517f2e1a7d4d000000000000000000000000000000000000000000000000000000008152600481018490527f000000000000000000000000000000000000000000000000000000000000000073ffffffffffffffffffffffffffffffffffffffff1690632e1a7d4d90602401600060405180830381600087803b15801561190757600080fd5b505af115801561191b573d6000803e3d6000fd5b505050506119298684612dd1565b50505050506113a960018055565b61193f612d50565b600280547fffffffffffffffffffffffff00000000000000000000000000000000000000001673ffffffffffffffffffffffffffffffffffffffff92909216919091179055565b61198e612a1c565b6040517f35ea6a7500000000000000000000000000000000000000000000000000000000815273ffffffffffffffffffffffffffffffffffffffff84811660048301526000917f0000000000000000000000000000000000000000000000000000000000000000909116906335ea6a75906024016101e060405180830381865afa158015611a20573d6000803e3d6000fd5b505050506040513d601f19601f82011682018060405250810190611a449190613ea8565b61010001516040517f70a0823100000000000000000000000000000000000000000000000000000000815233600482015290915060009073ffffffffffffffffffffffffffffffffffffffff8316906370a0823190602401602060405180830381865afa158015611ab9573d6000803e3d6000fd5b505050506040513d601f19601f82011682018060405250810190611add9190613e06565b9050837fffffffffffffffffffffffffffffffffffffffffffffffffffffffffffffffff811415611b0b5750805b6040517f23b872dd0000000000000000000000000000000000000000000000000000000081523360048201523060248201526044810182905273ffffffffffffffffffffffffffffffffffffffff8416906323b872dd906064016020604051808303816000875af1158015611b84573d6000803e3d6000fd5b505050506040513d601f19601f82011682018060405250810190611ba89190613fcb565b5060005a6040517f69328dec00000000000000000000000000000000000000000000000000000000815273ffffffffffffffffffffffffffffffffffffffff89811660048301526024820185905287811660448301529192507f0000000000000000000000000000000000000000000000000000000000000000909116906369328dec906064016020604051808303816000875af1158015611c4e573d6000803e3d6000fd5b505050506040513d601f19601f82011682018060405250810190611c729190613e06565b5060005a9050611c85611878828461387a565b50505050506106c360018055565b611c9b612a1c565b60005a6040517fa415bcad00000000000000000000000000000000000000000000000000000000815273ffffffffffffffffffffffffffffffffffffffff7f0000000000000000000000000000000000000000000000000000000000000000811660048301526024820186905260448201859052600060648301523360848301529192507f00000000000000000000000000000000000000000000000000000000000000009091169063a415bcad9060a401600060405180830381600087803b158015611d6757600080fd5b505af1158015611d7b573d6000803e3d6000fd5b5050505060005a9050611d91610690828461387a565b6040517f2e1a7d4d000000000000000000000000000000000000000000000000000000008152600481018590527f000000000000000000000000000000000000000000000000000000000000000073ffffffffffffffffffffffffffffffffffffffff1690632e1a7d4d90602401600060405180830381600087803b158015611e1957600080fd5b505af1158015611e2d573d6000803e3d6000fd5b50505050611e3b3385612dd1565b50506113a960018055565b611e4e612d50565b611e586000612eb5565b565b611e62612a1c565b80611e99576040517f1f2a200500000000000000000000000000000000000000000000000000000000815260040160405180910390fd5b73ffffffffffffffffffffffffffffffffffffffff8316611f9657348214611eed576040517f1841b4e100000000000000000000000000000000000000000000000000000000815260040160405180910390fd5b7f000000000000000000000000000000000000000000000000000000000000000073ffffffffffffffffffffffffffffffffffffffff1663d0e30db0836040518263ffffffff1660e01b81526004016000604051808303818588803b158015611f5557600080fd5b505af1158015611f69573d6000803e3d6000fd5b50505050507f00000000000000000000000000000000000000000000000000000000000000009250611ff6565b3415611fce576040517f1841b4e100000000000000000000000000000000000000000000000000000000815260040160405180910390fd5b8115611ff657611ff673ffffffffffffffffffffffffffffffffffffffff8416333085612cf2565b60005a90506000803385856040516020016120149493929190613fed565b604080517fffffffffffffffffffffffffffffffffffffffffffffffffffffffffffffffe0818403018152908290527f42b0b77c000000000000000000000000000000000000000000000000000000008252915073ffffffffffffffffffffffffffffffffffffffff7f000000000000000000000000000000000000000000000000000000000000000016906342b0b77c906120bd903090899088908790600090600401613da6565b600060405180830381600087803b1580156120d757600080fd5b505af11580156120eb573d6000803e3d6000fd5b5050505060005a9050612108612101828561387a565b6004612a90565b6040805133815273ffffffffffffffffffffffffffffffffffffffff88166020820152908101869052606081018590527f3844eeb24e2d31fa648194b139814a3630ef83d96c0f20200dd364ae344a62609060800160405180910390a15050506106c360018055565b612179612a1c565b816121b0576040517f1f2a200500000000000000000000000000000000000000000000000000000000815260040160405180910390fd5b81156121d8576121d873ffffffffffffffffffffffffffffffffffffffff8416333085612cf2565b612202837f0000000000000000000000000000000000000000000000000000000000000000612c17565b60005a6040517f617ba03700000000000000000000000000000000000000000000000000000000815273ffffffffffffffffffffffffffffffffffffffff8681166004830152602482018690528481166044830152600060648301529192507f00000000000000000000000000000000000000000000000000000000000000009091169063617ba03790608401600060405180830381600087803b1580156122a957600080fd5b505af11580156122bd573d6000803e3d6000fd5b5050505060005a90506106b8611526828461387a565b6122db612d50565b600380547fffffffffffffffffffffffff00000000000000000000000000000000000000001673ffffffffffffffffffffffffffffffffffffffff92909216919091179055565b61232a612a1c565b6040517f35ea6a7500000000000000000000000000000000000000000000000000000000815273ffffffffffffffffffffffffffffffffffffffff858116600483015260009182916123ec9185917f000000000000000000000000000000000000000000000000000000000000000016906335ea6a75906024015b6101e060405180830381865afa1580156123c3573d6000803e3d6000fd5b505050506040513d601f19601f820116820180604052508101906123e79190613ea8565b612f2a565b909250905060006001856002811115612407576124076138c0565b6002811115612418576124186138c0565b146124235781612425565b825b9050808610156124325750845b80612469576040517f1f2a200500000000000000000000000000000000000000000000000000000000815260040160405180910390fd5b61248b73ffffffffffffffffffffffffffffffffffffffff8816333084612cf2565b60005a6040517f573ade8100000000000000000000000000000000000000000000000000000000815273ffffffffffffffffffffffffffffffffffffffff8a81166004830152602482018590526044820189905287811660648301529192507f00000000000000000000000000000000000000000000000000000000000000009091169063573ade81906084016020604051808303816000875af1158015612537573d6000803e3d6000fd5b505050506040513d601f19601f8201168201806040525081019061255b9190613e06565b5060005a905061257561256e828461387a565b6003612a90565b505050505061258360018055565b50505050565b612591612d50565b73ffffffffffffffffffffffffffffffffffffffff83166125bb576125b68282612dd1565b6125dc565b6125dc73ffffffffffffffffffffffffffffffffffffffff84168383612b43565b8173ffffffffffffffffffffffffffffffffffffffff168373ffffffffffffffffffffffffffffffffffffffff167faabf44ab9d5bef08d1b60f287a337f0d11a248e49741ad189b429e47e98ba9108360405161263b91815260200190565b60405180910390a3505050565b612650612d50565b73ffffffffffffffffffffffffffffffffffffffff81166126f8576040517f08c379a000000000000000000000000000000000000000000000000000000000815260206004820152602660248201527f4f776e61626c653a206e6577206f776e657220697320746865207a65726f206160448201527f646472657373000000000000000000000000000000000000000000000000000060648201526084015b60405180910390fd5b61153881612eb5565b612709612a1c565b6040517f35ea6a7500000000000000000000000000000000000000000000000000000000815273ffffffffffffffffffffffffffffffffffffffff7f00000000000000000000000000000000000000000000000000000000000000008116600483015260009182916127a89185917f000000000000000000000000000000000000000000000000000000000000000016906335ea6a75906024016123a5565b9092509050600060018560028111156127c3576127c36138c0565b60028111156127d4576127d46138c0565b146127df57816127e1565b825b9050808610156127ee5750845b8034101561287e576040517f08c379a000000000000000000000000000000000000000000000000000000000815260206004820152602760248201527f6d73672e76616c7565206973206c657373207468616e2072657061796d656e7460448201527f20616d6f756e740000000000000000000000000000000000000000000000000060648201526084016126ef565b7f000000000000000000000000000000000000000000000000000000000000000073ffffffffffffffffffffffffffffffffffffffff1663d0e30db0826040518263ffffffff1660e01b81526004016000604051808303818588803b1580156128e657600080fd5b505af11580156128fa573d6000803e3d6000fd5b505050505060005a6040517f573ade8100000000000000000000000000000000000000000000000000000000815273ffffffffffffffffffffffffffffffffffffffff7f0000000000000000000000000000000000000000000000000000000000000000811660048301523460248301526044820189905287811660648301529192507f00000000000000000000000000000000000000000000000000000000000000009091169063573ade81906084016020604051808303816000875af11580156129ca573d6000803e3d6000fd5b505050506040513d601f19601f820116820180604052508101906129ee9190613e06565b5060005a9050612a0161256e828461387a565b82341115611c8557611c8533612a17853461387a565b612dd1565b60026001541415612a89576040517f08c379a000000000000000000000000000000000000000000000000000000000815260206004820152601f60248201527f5265656e7472616e637947756172643a207265656e7472616e742063616c6c0060448201526064016126ef565b6002600155565b60035473ffffffffffffffffffffffffffffffffffffffff16156113a9576000612aba3a8461402c565b6003546040517fcff29e6700000000000000000000000000000000000000000000000000000000815291925073ffffffffffffffffffffffffffffffffffffffff169063cff29e6790612b1590339085908790600401614069565b600060405180830381600087803b158015612b2f57600080fd5b505af1158015611251573d6000803e3d6000fd5b60405173ffffffffffffffffffffffffffffffffffffffff83166024820152604481018290526106c39084907fa9059cbb00000000000000000000000000000000000000000000000000000000906064015b604080517fffffffffffffffffffffffffffffffffffffffffffffffffffffffffffffffe08184030181529190526020810180517bffffffffffffffffffffffffffffffffffffffffffffffffffffffff167fffffffff0000000000000000000000000000000000000000000000000000000090931692909217909152613067565b6040517fdd62ed3e00000000000000000000000000000000000000000000000000000000815230600482015273ffffffffffffffffffffffffffffffffffffffff828116602483015283169063dd62ed3e90604401602060405180830381865afa158015612c89573d6000803e3d6000fd5b505050506040513d601f19601f82011682018060405250810190612cad9190613e06565b6113a9576113a973ffffffffffffffffffffffffffffffffffffffff8316827fffffffffffffffffffffffffffffffffffffffffffffffffffffffffffffffff613176565b60405173ffffffffffffffffffffffffffffffffffffffff808516602483015283166044820152606481018290526125839085907f23b872dd0000000000000000000000000000000000000000000000000000000090608401612b95565b60005473ffffffffffffffffffffffffffffffffffffffff163314611e58576040517f08c379a000000000000000000000000000000000000000000000000000000000815260206004820181905260248201527f4f776e61626c653a2063616c6c6572206973206e6f7420746865206f776e657260448201526064016126ef565b6040805160008082526020820190925273ffffffffffffffffffffffffffffffffffffffff8416908390604051612e0891906140ab565b60006040518083038185875af1925050503d8060008114612e45576040519150601f19603f3d011682016040523d82523d6000602084013e612e4a565b606091505b50509050806106c3576040517f08c379a000000000000000000000000000000000000000000000000000000000815260206004820152601360248201527f4554485f5452414e534645525f4641494c45440000000000000000000000000060448201526064016126ef565b6000805473ffffffffffffffffffffffffffffffffffffffff8381167fffffffffffffffffffffffff0000000000000000000000000000000000000000831681178455604051919092169283917f8be0079c531659141344cd1fd0a4f28419497f9722a3daafe3b4186f6b6457e09190a35050565b6101208101516040517f70a0823100000000000000000000000000000000000000000000000000000000815273ffffffffffffffffffffffffffffffffffffffff848116600483015260009283929116906370a0823190602401602060405180830381865afa158015612fa1573d6000803e3d6000fd5b505050506040513d601f19601f82011682018060405250810190612fc59190613e06565b6101408401516040517f70a0823100000000000000000000000000000000000000000000000000000000815273ffffffffffffffffffffffffffffffffffffffff8781166004830152909116906370a0823190602401602060405180830381865afa158015613038573d6000803e3d6000fd5b505050506040513d601f19601f8201168201806040525081019061305c9190613e06565b915091509250929050565b60006130c9826040518060400160405280602081526020017f5361666545524332303a206c6f772d6c6576656c2063616c6c206661696c65648152508573ffffffffffffffffffffffffffffffffffffffff166132f89092919063ffffffff16565b90508051600014806130ea5750808060200190518101906130ea9190613fcb565b6106c3576040517f08c379a000000000000000000000000000000000000000000000000000000000815260206004820152602a60248201527f5361666545524332303a204552433230206f7065726174696f6e20646964206e60448201527f6f7420737563636565640000000000000000000000000000000000000000000060648201526084016126ef565b80158061321657506040517fdd62ed3e00000000000000000000000000000000000000000000000000000000815230600482015273ffffffffffffffffffffffffffffffffffffffff838116602483015284169063dd62ed3e90604401602060405180830381865afa1580156131f0573d6000803e3d6000fd5b505050506040513d601f19601f820116820180604052508101906132149190613e06565b155b6132a2576040517f08c379a000000000000000000000000000000000000000000000000000000000815260206004820152603660248201527f5361666545524332303a20617070726f76652066726f6d206e6f6e2d7a65726f60448201527f20746f206e6f6e2d7a65726f20616c6c6f77616e63650000000000000000000060648201526084016126ef565b60405173ffffffffffffffffffffffffffffffffffffffff83166024820152604481018290526106c39084907f095ea7b30000000000000000000000000000000000000000000000000000000090606401612b95565b6060613307848460008561330f565b949350505050565b6060824710156133a1576040517f08c379a000000000000000000000000000000000000000000000000000000000815260206004820152602660248201527f416464726573733a20696e73756666696369656e742062616c616e636520666f60448201527f722063616c6c000000000000000000000000000000000000000000000000000060648201526084016126ef565b6000808673ffffffffffffffffffffffffffffffffffffffff1685876040516133ca91906140ab565b60006040518083038185875af1925050503d8060008114613407576040519150601f19603f3d011682016040523d82523d6000602084013e61340c565b606091505b509150915061341d87838387613428565b979650505050505050565b606083156134bb5782516134b45773ffffffffffffffffffffffffffffffffffffffff85163b6134b4576040517f08c379a000000000000000000000000000000000000000000000000000000000815260206004820152601d60248201527f416464726573733a2063616c6c20746f206e6f6e2d636f6e747261637400000060448201526064016126ef565b5081613307565b61330783838151156134d05781518083602001fd5b806040517f08c379a00000000000000000000000000000000000000000000000000000000081526004016126ef91906140c7565b73ffffffffffffffffffffffffffffffffffffffff8116811461153857600080fd5b60008060006060848603121561353b57600080fd5b833561354681613504565b95602085013595506040909401359392505050565b60008060008060008060a0878903121561357457600080fd5b863561357f81613504565b95506020870135945060408701359350606087013561359d81613504565b9250608087013567ffffffffffffffff808211156135ba57600080fd5b818901915089601f8301126135ce57600080fd5b8135818111156135dd57600080fd5b8a60208285010111156135ef57600080fd5b6020830194508093505050509295509295509295565b600080600080600080600060c0888a03121561362057600080fd5b873561362b81613504565b96506020880135955060408801359450606088013561364981613504565b93506080880135925060a088013567ffffffffffffffff8082111561366d57600080fd5b818a0191508a601f83011261368157600080fd5b81358181111561369057600080fd5b8b60208260051b85010111156136a557600080fd5b60208301945080935050505092959891949750929550565b6000602082840312156136cf57600080fd5b81356136da81613504565b9392505050565b600080604083850312156136f457600080fd5b82359150602083013561370681613504565b809150509250929050565b60008060006060848603121561372657600080fd5b833561373181613504565b925060208401359150604084013561374881613504565b809150509250925092565b6000806040838503121561376657600080fd5b50508035926020909101359150565b6000806000806080858703121561378b57600080fd5b843561379681613504565b9350602085013592506040850135915060608501356137b481613504565b939692955090935050565b6000806000606084860312156137d457600080fd5b83356137df81613504565b925060208401356137ef81613504565b929592945050506040919091013590565b60008060006060848603121561381557600080fd5b8335925060208401359150604084013561374881613504565b60006020828403121561384057600080fd5b81516136da81613504565b7f4e487b7100000000000000000000000000000000000000000000000000000000600052601160045260246000fd5b60008282101561388c5761388c61384b565b500390565b8035600281106138a057600080fd5b919050565b6000602082840312156138b757600080fd5b6136da82613891565b7f4e487b7100000000000000000000000000000000000000000000000000000000600052602160045260246000fd5b600080858511156138ff57600080fd5b8386111561390c57600080fd5b5050820193919092039150565b6000821982111561392c5761392c61384b565b500190565b7f4e487b7100000000000000000000000000000000000000000000000000000000600052604160045260246000fd5b60405160a0810167ffffffffffffffff8111828210171561398357613983613931565b60405290565b6040516101e0810167ffffffffffffffff8111828210171561398357613983613931565b604051601f82017fffffffffffffffffffffffffffffffffffffffffffffffffffffffffffffffe016810167ffffffffffffffff811182821017156139f4576139f4613931565b604052919050565b600067ffffffffffffffff821115613a1657613a16613931565b5060051b60200190565b60008060408385031215613a3357600080fd5b613a3c83613891565b915060208084013567ffffffffffffffff80821115613a5a57600080fd5b9085019060a08288031215613a6e57600080fd5b613a76613960565b8235613a8181613504565b8082525083830135848201526040830135604082015260608301356060820152608083013582811115613ab357600080fd5b80840193505087601f840112613ac857600080fd5b82359150613add613ad8836139fc565b6139ad565b82815260059290921b83018401918481019089841115613afc57600080fd5b938501935b83851015613b23578435613b1481613504565b82529385019390850190613b01565b608083015250949794965093945050505050565b600060a082018783526020878185015260a0604085015281875180845260c086019150828901935060005b81811015613b9457845173ffffffffffffffffffffffffffffffffffffffff1683529383019391830191600101613b62565b505073ffffffffffffffffffffffffffffffffffffffff969096166060850152505050608001529392505050565b60006020808385031215613bd557600080fd5b825167ffffffffffffffff811115613bec57600080fd5b8301601f81018513613bfd57600080fd5b8051613c0b613ad8826139fc565b81815260059190911b82018301908381019087831115613c2a57600080fd5b928401925b8284101561341d57835182529284019290840190613c2f565b7f4e487b7100000000000000000000000000000000000000000000000000000000600052603260045260246000fd5b60028110613c8757613c876138c0565b9052565b613c958184613c77565b6000602060408184015260e0830173ffffffffffffffffffffffffffffffffffffffff80865116604086015282860151606086015260408601516080860152606086015160a0860152608086015160a060c0870152828151808552610100880191508583019450600092505b80831015613d2357845184168252938501936001929092019190850190613d01565b5098975050505050505050565b60005b83811015613d4b578181015183820152602001613d33565b838111156125835750506000910152565b60008151808452613d74816020860160208601613d30565b601f017fffffffffffffffffffffffffffffffffffffffffffffffffffffffffffffffe0169290920160200192915050565b600073ffffffffffffffffffffffffffffffffffffffff808816835280871660208401525084604083015260a06060830152613de560a0830185613d5c565b905061ffff831660808301529695505050505050565b80516138a081613504565b600060208284031215613e1857600080fd5b5051919050565b600060208284031215613e3157600080fd5b6040516020810181811067ffffffffffffffff82111715613e5457613e54613931565b6040529151825250919050565b80516fffffffffffffffffffffffffffffffff811681146138a057600080fd5b805164ffffffffff811681146138a057600080fd5b805161ffff811681146138a057600080fd5b60006101e08284031215613ebb57600080fd5b613ec3613989565b613ecd8484613e1f565b8152613edb60208401613e61565b6020820152613eec60408401613e61565b6040820152613efd60608401613e61565b6060820152613f0e60808401613e61565b6080820152613f1f60a08401613e61565b60a0820152613f3060c08401613e81565b60c0820152613f4160e08401613e96565b60e0820152610100613f54818501613dfb565b90820152610120613f66848201613dfb565b90820152610140613f78848201613dfb565b90820152610160613f8a848201613dfb565b90820152610180613f9c848201613e61565b908201526101a0613fae848201613e61565b908201526101c0613fc0848201613e61565b908201529392505050565b600060208284031215613fdd57600080fd5b815180151581146136da57600080fd5b60808101613ffb8287613c77565b73ffffffffffffffffffffffffffffffffffffffff8516602083015283604083015282606083015295945050505050565b6000817fffffffffffffffffffffffffffffffffffffffffffffffffffffffffffffffff04831182151516156140645761406461384b565b500290565b73ffffffffffffffffffffffffffffffffffffffff8416815260208101839052606081016006831061409d5761409d6138c0565b826040830152949350505050565b600082516140bd818460208701613d30565b9190910192915050565b6020815260006136da6020830184613d5c56fea2646970667358221220cd410000fc111763ce4e0d83f2c66dc239d592df1a1125327dab6df1a1e00f8864736f6c634300080a0033",
  "devdoc": {
    "author": "PAC",
    "events": {
      "LeverageDeposit(address,address,uint256,uint256)": {
        "details": "Emitted during leverageDeposit()",
        "params": {
          "asset": "The address of the asset",
          "borrowAmount": "The amount borrowed from lending pool for the deposit*",
          "cashAmount": "The amount of cash for the deposit",
          "user": "The address of the user"
        }
      },
      "MultiplierDeposit(address,address,uint256,uint256,address)": {
        "details": "Emitted during multiplierDeposit()",
        "params": {
          "asset": "The address of the asset",
          "borrowAmount": "The amount borrowed from lending pool for the deposit",
          "cashAmount": "The amount of cash for the deposit",
          "depositAsset": "The address of the deposit asset*",
          "user": "The address of the user"
        }
      },
      "RescueToken(address,address,uint256)": {
        "details": "Emitted during rescueToken()",
        "params": {
          "amount": "The amount being rescued*",
          "to": "The address of the recipient",
          "token": "The address of the token"
        }
      }
    },
    "kind": "dev",
    "methods": {
      "borrowETH(uint256,uint256)": {
        "details": "borrow WETH, unwraps to ETH and send both the ETH and DebtTokens to msg.sender, via `approveDelegation` and onBehalf argument in `Pool.borrow`.",
        "params": {
          "amount": "the amount of ETH to borrow",
          "interestRateMode": "the interest rate mode"
        }
      },
      "depositETH(address)": {
        "details": "deposits WETH into the reserve, using native ETH. A corresponding amount of the overlying asset (aTokens) is minted.",
        "params": {
          "onBehalfOf": "address of the user who will receive the aTokens representing the deposit*"
        }
      },
      "executeOperation(address,uint256,uint256,address,bytes)": {
        "details": "Ensure that the contract can return the debt + premium, e.g., has      enough funds to repay and has approved the Pool to pull the total amount",
        "params": {
          "amount": "The amount of the flash-borrowed asset",
          "asset": "The address of the flash-borrowed asset",
          "initiator": "The address of the flashloan initiator",
          "params": "The byte-encoded params passed when initiating the flashloan",
          "premium": "The fee of the flash-borrowed asset"
        },
        "returns": {
          "_0": "True if the execution of the operation succeeds, false otherwise"
        }
      },
      "leverageDeposit(address,uint256,uint256)": {
        "details": "Loop the deposit and borrow of an asset",
        "params": {
          "asset": "to deposit",
          "borrowAmount": "borrow amount for the deposit*",
          "cashAmount": "cash amount for the deposit"
        }
      },
      "owner()": {
        "details": "Returns the address of the current owner."
      },
      "renounceOwnership()": {
        "details": "Leaves the contract without owner. It will not be possible to call `onlyOwner` functions. Can only be called by the current owner. NOTE: Renouncing ownership will leave the contract without an owner, thereby disabling any functionality that is only available to the owner."
      },
      "repayETH(uint256,uint256,address)": {
        "details": "repays a borrow on the WETH reserve, for the specified amount (or for the whole amount, if uint256(-1) is specified).",
        "params": {
          "amount": "the amount to repay, or uint256(-1) if the user wants to repay everything",
          "onBehalfOf": "the address for which msg.sender is repaying",
          "rateMode": "the rate mode to repay"
        }
      },
      "rescueToken(address,address,uint256)": {
        "params": {
          "amount": "The amount to be rescued*",
          "to": "The account address to receive token",
          "token": "The token address to be rescued"
        }
      },
      "setGasRefund(address)": {
        "params": {
          "_gasRefund": "The address of user gas refund contract*"
        }
      },
      "supplyERC20(address,uint256,address)": {
        "params": {
          "amount": "The amount to be supplied",
          "asset": "The address of the underlying asset to supply",
          "onBehalfOf": "The address that will receive the aTokens, same as msg.sender if the user   wants to receive them on his own wallet, or a different address if the beneficiary of aTokens   is a different wallet"
        }
      },
      "transferOwnership(address)": {
        "details": "Transfers ownership of the contract to a new account (`newOwner`). Can only be called by the current owner."
      },
      "withdrawERC20(address,uint256,address)": {
        "params": {
          "amount": "The underlying amount to be withdrawn   - Send the value type(uint256).max in order to withdraw the whole aToken balance",
          "asset": "The address of the underlying asset to withdraw",
          "to": "The address that will receive the underlying, same as msg.sender if the user   wants to receive it on his own wallet, or a different address if the beneficiary is a   different wallet"
        }
      },
      "withdrawETH(uint256,address)": {
        "details": "withdraws the WETH _reserves of msg.sender.",
        "params": {
          "amount": "amount of aWETH to withdraw and receive native ETH",
          "to": "address of the user who will receive native ETH"
        }
      }
    },
    "title": "PAC Pool Wrapper Contract",
    "version": 1
  },
  "userdoc": {
    "kind": "user",
    "methods": {
      "POOL()": {
        "notice": "Lending Pool address"
      },
      "WETH()": {
        "notice": "Wrapped ETH contract address"
      },
      "executeOperation(address,uint256,uint256,address,bytes)": {
        "notice": "Executes an operation after receiving the flash-borrowed asset"
      },
      "gasRefund()": {
        "notice": "Gas refund contract address"
      },
      "rescueToken(address,address,uint256)": {
        "notice": "Rescue erc20/ETH from this contract address. Only owner can call this function"
      },
      "setGasRefund(address)": {
        "notice": "Set gas refund address. Only owner can call this function"
      },
      "supplyERC20(address,uint256,address)": {
        "notice": "Supplly an `amount` of underlying asset into the reserve, receiving in return overlying aTokens. - E.g. User supplies 100 USDC and gets in return 100 aUSDC"
      },
      "swapRouter()": {
        "notice": "UniswapV2 swap router contract address"
      },
      "withdrawERC20(address,uint256,address)": {
        "notice": "Withdraws an `amount` of underlying asset from the reserve, burning the equivalent aTokens owned E.g. User has 100 aUSDC, calls withdraw() and receives 100 USDC, burning the 100 aUSDC"
      }
    },
    "version": 1
  },
  "storageLayout": {
    "storage": [
      {
        "astId": 690,
        "contract": "contracts/PacPoolWrapper.sol:PacPoolWrapper",
        "label": "_owner",
        "offset": 0,
        "slot": "0",
        "type": "t_address"
      },
      {
        "astId": 806,
        "contract": "contracts/PacPoolWrapper.sol:PacPoolWrapper",
        "label": "_status",
        "offset": 0,
        "slot": "1",
        "type": "t_uint256"
      },
      {
        "astId": 2096,
        "contract": "contracts/PacPoolWrapper.sol:PacPoolWrapper",
        "label": "swapRouter",
        "offset": 0,
        "slot": "2",
        "type": "t_contract(IUniswapV2Router02)8079"
      },
      {
        "astId": 2099,
        "contract": "contracts/PacPoolWrapper.sol:PacPoolWrapper",
        "label": "gasRefund",
        "offset": 0,
        "slot": "3",
        "type": "t_address"
      }
    ],
    "types": {
      "t_address": {
        "encoding": "inplace",
        "label": "address",
        "numberOfBytes": "20"
      },
      "t_contract(IUniswapV2Router02)8079": {
        "encoding": "inplace",
        "label": "contract IUniswapV2Router02",
        "numberOfBytes": "20"
      },
      "t_uint256": {
        "encoding": "inplace",
        "label": "uint256",
        "numberOfBytes": "32"
      }
    }
  }
}