{
  "address": "0x741d8B79eeEe07A3452E151341f5458469a95430",
  "abi": [
    {
      "inputs": [
        {
          "internalType": "address",
          "name": "_underlyingAsset",
          "type": "address"
        },
        {
          "internalType": "address",
          "name": "_addressProvider",
          "type": "address"
        }
      ],
      "stateMutability": "nonpayable",
      "type": "constructor"
    },
    {
      "inputs": [],
      "name": "DecimalsAboveLimit",
      "type": "error"
    },
    {
      "inputs": [],
      "name": "DecimalsNotEqual",
      "type": "error"
    },
    {
      "inputs": [],
      "name": "ADDRESSES_PROVIDER",
      "outputs": [
        {
          "internalType": "contract IPoolAddressesProvider",
          "name": "",
          "type": "address"
        }
      ],
      "stateMutability": "view",
      "type": "function"
    },
    {
      "inputs": [],
      "name": "latestAnswer",
      "outputs": [
        {
          "internalType": "int256",
          "name": "",
          "type": "int256"
        }
      ],
      "stateMutability": "view",
      "type": "function"
    }
  ],
  "transactionHash": "0xfbaaca447742d889660f90b8f3db757049ca5dfd910f438c16afd31a912752f5",
  "args": [
    "0x9BE8a40C9cf00fe33fd84EAeDaA5C4fe3f04CbC3",
    "0x688B5fd3C3E3724b4De08C4BCB3A755F9b579c9a"
  ],
  "numDeployments": 1,
  "solcInputHash": "2ef20981690b0de5a20299dd8af85287",
  "bytecode": "0x6101606040523480156200001257600080fd5b5060405162000e3c38038062000e3c833981016040819052620000359162000280565b6001600160a01b03821660a081905260408051630dfe168160e01b81529051630dfe1681916004808201926020929091908290030181865afa15801562000080573d6000803e3d6000fd5b505050506040513d601f19601f82011682018060405250810190620000a69190620002b8565b6001600160a01b031660c0816001600160a01b031681525050816001600160a01b031663d21220a76040518163ffffffff1660e01b8152600401602060405180830381865afa158015620000fe573d6000803e3d6000fd5b505050506040513d601f19601f82011682018060405250810190620001249190620002b8565b6001600160a01b031660e0816001600160a01b03168152505060c0516001600160a01b031663313ce5676040518163ffffffff1660e01b8152600401602060405180830381865afa1580156200017e573d6000803e3d6000fd5b505050506040513d601f19601f82011682018060405250810190620001a49190620002dd565b60ff166101008160ff168152505060e0516001600160a01b031663313ce5676040518163ffffffff1660e01b8152600401602060405180830381865afa158015620001f3573d6000803e3d6000fd5b505050506040513d601f19601f82011682018060405250810190620002199190620002dd565b60ff166101208190526200022f90600a62000417565b610100516200024090600a62000417565b6200024c919062000428565b610140526001600160a01b0316608052506200044a565b80516001600160a01b03811681146200027b57600080fd5b919050565b600080604083850312156200029457600080fd5b6200029f8362000263565b9150620002af6020840162000263565b90509250929050565b600060208284031215620002cb57600080fd5b620002d68262000263565b9392505050565b600060208284031215620002f057600080fd5b815160ff81168114620002d657600080fd5b634e487b7160e01b600052601160045260246000fd5b600181815b80851115620003595781600019048211156200033d576200033d62000302565b808516156200034b57918102915b93841c93908002906200031d565b509250929050565b600082620003725750600162000411565b81620003815750600062000411565b81600181146200039a5760028114620003a557620003c5565b600191505062000411565b60ff841115620003b957620003b962000302565b50506001821b62000411565b5060208310610133831016604e8410600b8410161715620003ea575081810a62000411565b620003f6838362000318565b80600019048211156200040d576200040d62000302565b0290505b92915050565b6000620002d660ff84168362000361565b600081600019048311821515161562000445576200044562000302565b500290565b60805160a05160c05160e05161010051610120516101405161098b620004b1600039600061015e015260006103f30152600061041e0152600061036e015260006102b801526000818160a90152610483015260008181604001526101ee015261098b6000f3fe608060405234801561001057600080fd5b50600436106100365760003560e01c80630542975c1461003b57806350d25bcd1461008c575b600080fd5b6100627f000000000000000000000000000000000000000000000000000000000000000081565b60405173ffffffffffffffffffffffffffffffffffffffff90911681526020015b60405180910390f35b6100946100a2565b604051908152602001610083565b60008060007f000000000000000000000000000000000000000000000000000000000000000073ffffffffffffffffffffffffffffffffffffffff16630902f1ac6040518163ffffffff1660e01b8152600401606060405180830381865afa158015610112573d6000803e3d6000fd5b505050506040513d601f19601f8201168201806040525081019061013691906106d7565b506dffffffffffffffffffffffffffff9182169350169050600061015a8284610756565b90507f000000000000000000000000000000000000000000000000000000000000000081116101ea576040517f08c379a000000000000000000000000000000000000000000000000000000000815260206004820152600c60248201527f696e76616c69642070616972000000000000000000000000000000000000000060448201526064015b60405180910390fd5b60007f000000000000000000000000000000000000000000000000000000000000000073ffffffffffffffffffffffffffffffffffffffff1663fca513a86040518163ffffffff1660e01b8152600401602060405180830381865afa158015610257573d6000803e3d6000fd5b505050506040513d601f19601f8201168201806040525081019061027b9190610793565b6040517fb3596f0700000000000000000000000000000000000000000000000000000000815273ffffffffffffffffffffffffffffffffffffffff7f00000000000000000000000000000000000000000000000000000000000000008116600483015291925060009183169063b3596f0790602401602060405180830381865afa15801561030d573d6000803e3d6000fd5b505050506040513d601f19601f8201168201806040525081019061033191906107d0565b6040517fb3596f0700000000000000000000000000000000000000000000000000000000815273ffffffffffffffffffffffffffffffffffffffff7f00000000000000000000000000000000000000000000000000000000000000008116600483015291925060009184169063b3596f0790602401602060405180830381865afa1580156103c3573d6000803e3d6000fd5b505050506040513d601f19601f820116820180604052508101906103e791906107d0565b905060006104726104197f0000000000000000000000000000000000000000000000000000000000000000600a61090b565b6104447f0000000000000000000000000000000000000000000000000000000000000000600a61090b565b8461044f878a610756565b6104599190610756565b610463919061091a565b61046d919061091a565b61054a565b61047d906002610756565b905060007f000000000000000000000000000000000000000000000000000000000000000073ffffffffffffffffffffffffffffffffffffffff166318160ddd6040518163ffffffff1660e01b8152600401602060405180830381865afa1580156104ec573d6000803e3d6000fd5b505050506040513d601f19601f8201168201806040525081019061051091906107d0565b905060008161052784670de0b6b3a7640000610756565b610531919061091a565b905061053c81610603565b995050505050505050505090565b60b5817101000000000000000000000000000000000081106105715760409190911b9060801c5b6901000000000000000000811061058d5760209190911b9060401c5b6501000000000081106105a55760109190911b9060201c5b630100000081106105bb5760089190911b9060101c5b62010000010260121c80820401600190811c80830401811c80830401811c80830401811c80830401811c80830401811c80830401901c8082048111156105fe5781045b919050565b60007f7fffffffffffffffffffffffffffffffffffffffffffffffffffffffffffffff8211156106b5576040517f08c379a000000000000000000000000000000000000000000000000000000000815260206004820152602860248201527f53616665436173743a2076616c756520646f65736e27742066697420696e206160448201527f6e20696e7432353600000000000000000000000000000000000000000000000060648201526084016101e1565b5090565b80516dffffffffffffffffffffffffffff811681146105fe57600080fd5b6000806000606084860312156106ec57600080fd5b6106f5846106b9565b9250610703602085016106b9565b9150604084015163ffffffff8116811461071c57600080fd5b809150509250925092565b7f4e487b7100000000000000000000000000000000000000000000000000000000600052601160045260246000fd5b6000817fffffffffffffffffffffffffffffffffffffffffffffffffffffffffffffffff048311821515161561078e5761078e610727565b500290565b6000602082840312156107a557600080fd5b815173ffffffffffffffffffffffffffffffffffffffff811681146107c957600080fd5b9392505050565b6000602082840312156107e257600080fd5b5051919050565b600181815b8085111561084257817fffffffffffffffffffffffffffffffffffffffffffffffffffffffffffffffff0482111561082857610828610727565b8085161561083557918102915b93841c93908002906107ee565b509250929050565b60008261085957506001610905565b8161086657506000610905565b816001811461087c5760028114610886576108a2565b6001915050610905565b60ff84111561089757610897610727565b50506001821b610905565b5060208310610133831016604e8410600b84101617156108c5575081810a610905565b6108cf83836107e9565b807fffffffffffffffffffffffffffffffffffffffffffffffffffffffffffffffff0482111561090157610901610727565b0290505b92915050565b60006107c960ff84168361084a565b600082610950577f4e487b7100000000000000000000000000000000000000000000000000000000600052601260045260246000fd5b50049056fea264697066735822122067de716506f30c4edb59ad69d70363ad8de5d651a2f4d1e09381520eac56b2ba64736f6c634300080a0033",
  "devdoc": {
    "kind": "dev",
    "methods": {},
    "version": 1
  },
  "userdoc": {
    "kind": "user",
    "methods": {
      "latestAnswer()": {
        "notice": "Calculates the current answer based on the aggregators."
      }
    },
    "version": 1
  },
  "storageLayout": {
    "storage": [],
    "types": null
  }
}